{
  "contractName": "block20",
  "abi": [
    {
      "inputs": [
        {
          "internalType": "contract IERC20",
          "name": "_tokenContract",
          "type": "address"
        },
        {
          "internalType": "uint256",
          "name": "_price",
          "type": "uint256"
        }
      ],
      "stateMutability": "nonpayable",
      "type": "constructor"
    },
    {
      "anonymous": false,
      "inputs": [
        {
          "indexed": false,
          "internalType": "address",
          "name": "seller",
          "type": "address"
        },
        {
          "indexed": false,
          "internalType": "uint256",
          "name": "amount",
          "type": "uint256"
        }
      ],
      "name": "Purchased",
      "type": "event"
    },
    {
      "anonymous": false,
      "inputs": [
        {
          "indexed": false,
          "internalType": "address",
          "name": "buyer",
          "type": "address"
        },
        {
          "indexed": false,
          "internalType": "uint256",
          "name": "amount",
          "type": "uint256"
        }
      ],
      "name": "Sold",
      "type": "event"
    },
    {
      "inputs": [],
      "name": "owner",
      "outputs": [
        {
          "internalType": "address payable",
          "name": "",
          "type": "address"
        }
      ],
      "stateMutability": "view",
      "type": "function"
    },
    {
      "inputs": [],
      "name": "price",
      "outputs": [
        {
          "internalType": "uint256",
          "name": "",
          "type": "uint256"
        }
      ],
      "stateMutability": "view",
      "type": "function"
    },
    {
      "inputs": [],
      "name": "tokenContract",
      "outputs": [
        {
          "internalType": "contract IERC20",
          "name": "",
          "type": "address"
        }
      ],
      "stateMutability": "view",
      "type": "function"
    },
    {
      "stateMutability": "payable",
      "type": "receive"
    },
    {
      "inputs": [],
      "name": "buyTokens",
      "outputs": [],
      "stateMutability": "payable",
      "type": "function"
    },
    {
      "inputs": [
        {
          "internalType": "uint256",
          "name": "tokenAmount",
          "type": "uint256"
        }
      ],
      "name": "sellTokens",
      "outputs": [],
      "stateMutability": "nonpayable",
      "type": "function"
    },
    {
      "inputs": [],
      "name": "withdrawETH",
      "outputs": [],
      "stateMutability": "nonpayable",
      "type": "function"
    },
    {
      "inputs": [
        {
          "internalType": "uint256",
          "name": "tokenAmount",
          "type": "uint256"
        }
      ],
      "name": "withdrawTokens",
      "outputs": [],
      "stateMutability": "nonpayable",
      "type": "function"
    },
    {
      "inputs": [
        {
          "internalType": "uint256",
          "name": "_price",
          "type": "uint256"
        }
      ],
      "name": "setPrice",
      "outputs": [],
      "stateMutability": "nonpayable",
      "type": "function"
    }
  ],
  "bytecode": "0x608060405234801562000010575f80fd5b506040516200138838038062001388833981810160405281019062000036919062000174565b815f806101000a81548173ffffffffffffffffffffffffffffffffffffffff021916908373ffffffffffffffffffffffffffffffffffffffff160217905550806001819055503360025f6101000a81548173ffffffffffffffffffffffffffffffffffffffff021916908373ffffffffffffffffffffffffffffffffffffffff1602179055505050620001b9565b5f80fd5b5f73ffffffffffffffffffffffffffffffffffffffff82169050919050565b5f620000f382620000c8565b9050919050565b5f6200010682620000e7565b9050919050565b6200011881620000fa565b811462000123575f80fd5b50565b5f8151905062000136816200010d565b92915050565b5f819050919050565b62000150816200013c565b81146200015b575f80fd5b50565b5f815190506200016e8162000145565b92915050565b5f80604083850312156200018d576200018c620000c4565b5b5f6200019c8582860162000126565b9250506020620001af858286016200015e565b9150509250929050565b6111c180620001c75f395ff3fe60806040526004361061007e575f3560e01c806391b7f5ed1161004d57806391b7f5ed1461012d578063a035b1fe14610155578063d0febe4c1461017f578063e086e5ec1461018957610085565b8063315a095d1461008957806355a373d6146100b15780636c11bcd3146100db5780638da5cb5b1461010357610085565b3661008557005b5f80fd5b348015610094575f80fd5b506100af60048036038101906100aa919061099f565b61019f565b005b3480156100bc575f80fd5b506100c561032b565b6040516100d29190610a44565b60405180910390f35b3480156100e6575f80fd5b5061010160048036038101906100fc919061099f565b61034e565b005b34801561010e575f80fd5b506101176105a5565b6040516101249190610a7d565b60405180910390f35b348015610138575f80fd5b50610153600480360381019061014e919061099f565b6105ca565b005b348015610160575f80fd5b50610169610663565b6040516101769190610aa5565b60405180910390f35b610187610669565b005b348015610194575f80fd5b5061019d610872565b005b60025f9054906101000a900473ffffffffffffffffffffffffffffffffffffffff1673ffffffffffffffffffffffffffffffffffffffff163373ffffffffffffffffffffffffffffffffffffffff161461022e576040517f08c379a000000000000000000000000000000000000000000000000000000000815260040161022590610b18565b60405180910390fd5b5f8054906101000a900473ffffffffffffffffffffffffffffffffffffffff1673ffffffffffffffffffffffffffffffffffffffff1663a9059cbb60025f9054906101000a900473ffffffffffffffffffffffffffffffffffffffff16836040518363ffffffff1660e01b81526004016102a9929190610b56565b6020604051808303815f875af11580156102c5573d5f803e3d5ffd5b505050506040513d601f19601f820116820180604052508101906102e99190610bb2565b610328576040517f08c379a000000000000000000000000000000000000000000000000000000000815260040161031f90610c27565b60405180910390fd5b50565b5f8054906101000a900473ffffffffffffffffffffffffffffffffffffffff1681565b5f8111610390576040517f08c379a000000000000000000000000000000000000000000000000000000000815260040161038790610cb5565b60405180910390fd5b5f6001548261039f9190610d00565b9050804710156103e4576040517f08c379a00000000000000000000000000000000000000000000000000000000081526004016103db90610d8b565b60405180910390fd5b5f8054906101000a900473ffffffffffffffffffffffffffffffffffffffff1673ffffffffffffffffffffffffffffffffffffffff166323b872dd3330856040518463ffffffff1660e01b815260040161044093929190610dc9565b6020604051808303815f875af115801561045c573d5f803e3d5ffd5b505050506040513d601f19601f820116820180604052508101906104809190610bb2565b6104bf576040517f08c379a00000000000000000000000000000000000000000000000000000000081526004016104b690610e48565b60405180910390fd5b5f3373ffffffffffffffffffffffffffffffffffffffff16826040516104e490610e93565b5f6040518083038185875af1925050503d805f811461051e576040519150601f19603f3d011682016040523d82523d5f602084013e610523565b606091505b5050905080610567576040517f08c379a000000000000000000000000000000000000000000000000000000000815260040161055e90610ef1565b60405180910390fd5b7fa512fb2532ca8587f236380171326ebb69670e86a2ba0c4412a3fcca4c3ada9b3384604051610598929190610f0f565b60405180910390a1505050565b60025f9054906101000a900473ffffffffffffffffffffffffffffffffffffffff1681565b60025f9054906101000a900473ffffffffffffffffffffffffffffffffffffffff1673ffffffffffffffffffffffffffffffffffffffff163373ffffffffffffffffffffffffffffffffffffffff1614610659576040517f08c379a000000000000000000000000000000000000000000000000000000000815260040161065090610f80565b60405180910390fd5b8060018190555050565b60015481565b5f600154346106789190610fcb565b90505f805f9054906101000a900473ffffffffffffffffffffffffffffffffffffffff1673ffffffffffffffffffffffffffffffffffffffff166370a08231306040518263ffffffff1660e01b81526004016106d49190610ffb565b602060405180830381865afa1580156106ef573d5f803e3d5ffd5b505050506040513d601f19601f820116820180604052508101906107139190611028565b90505f8211610757576040517f08c379a000000000000000000000000000000000000000000000000000000000815260040161074e9061109d565b60405180910390fd5b8082111561079a576040517f08c379a000000000000000000000000000000000000000000000000000000000815260040161079190611105565b60405180910390fd5b5f8054906101000a900473ffffffffffffffffffffffffffffffffffffffff1673ffffffffffffffffffffffffffffffffffffffff1663a9059cbb33846040518363ffffffff1660e01b81526004016107f4929190610f0f565b6020604051808303815f875af1158015610810573d5f803e3d5ffd5b505050506040513d601f19601f820116820180604052508101906108349190610bb2565b507fae92ab4b6f8f401ead768d3273e6bb937a13e39827d19c6376e8fd4512a05d9a3383604051610866929190610f0f565b60405180910390a15050565b60025f9054906101000a900473ffffffffffffffffffffffffffffffffffffffff1673ffffffffffffffffffffffffffffffffffffffff163373ffffffffffffffffffffffffffffffffffffffff1614610901576040517f08c379a00000000000000000000000000000000000000000000000000000000081526004016108f89061116d565b60405180910390fd5b60025f9054906101000a900473ffffffffffffffffffffffffffffffffffffffff1673ffffffffffffffffffffffffffffffffffffffff166108fc4790811502906040515f60405180830381858888f19350505050158015610965573d5f803e3d5ffd5b50565b5f80fd5b5f819050919050565b61097e8161096c565b8114610988575f80fd5b50565b5f8135905061099981610975565b92915050565b5f602082840312156109b4576109b3610968565b5b5f6109c18482850161098b565b91505092915050565b5f73ffffffffffffffffffffffffffffffffffffffff82169050919050565b5f819050919050565b5f610a0c610a07610a02846109ca565b6109e9565b6109ca565b9050919050565b5f610a1d826109f2565b9050919050565b5f610a2e82610a13565b9050919050565b610a3e81610a24565b82525050565b5f602082019050610a575f830184610a35565b92915050565b5f610a67826109ca565b9050919050565b610a7781610a5d565b82525050565b5f602082019050610a905f830184610a6e565b92915050565b610a9f8161096c565b82525050565b5f602082019050610ab85f830184610a96565b92915050565b5f82825260208201905092915050565b7f4f6e6c79206f776e65722063616e20776974686472617720746f6b656e7300005f82015250565b5f610b02601e83610abe565b9150610b0d82610ace565b602082019050919050565b5f6020820190508181035f830152610b2f81610af6565b9050919050565b5f610b4082610a13565b9050919050565b610b5081610b36565b82525050565b5f604082019050610b695f830185610b47565b610b766020830184610a96565b9392505050565b5f8115159050919050565b610b9181610b7d565b8114610b9b575f80fd5b50565b5f81519050610bac81610b88565b92915050565b5f60208284031215610bc757610bc6610968565b5b5f610bd484828501610b9e565b91505092915050565b7f4661696c656420746f207472616e7366657220746f6b656e73000000000000005f82015250565b5f610c11601983610abe565b9150610c1c82610bdd565b602082019050919050565b5f6020820190508181035f830152610c3e81610c05565b9050919050565b7f596f75206e65656420746f2073656c6c206174206c6561737420736f6d6520745f8201527f6f6b656e73000000000000000000000000000000000000000000000000000000602082015250565b5f610c9f602583610abe565b9150610caa82610c45565b604082019050919050565b5f6020820190508181035f830152610ccc81610c93565b9050919050565b7f4e487b71000000000000000000000000000000000000000000000000000000005f52601160045260245ffd5b5f610d0a8261096c565b9150610d158361096c565b9250828202610d238161096c565b91508282048414831517610d3a57610d39610cd3565b5b5092915050565b7f4e6f7420656e6f75676820657468657220696e207468652072657365727665005f82015250565b5f610d75601f83610abe565b9150610d8082610d41565b602082019050919050565b5f6020820190508181035f830152610da281610d69565b9050919050565b5f610db3826109ca565b9050919050565b610dc381610da9565b82525050565b5f606082019050610ddc5f830186610dba565b610de96020830185610dba565b610df66040830184610a96565b949350505050565b7f546f6b656e207472616e73666572206661696c656400000000000000000000005f82015250565b5f610e32601583610abe565b9150610e3d82610dfe565b602082019050919050565b5f6020820190508181035f830152610e5f81610e26565b9050919050565b5f81905092915050565b50565b5f610e7e5f83610e66565b9150610e8982610e70565b5f82019050919050565b5f610e9d82610e73565b9150819050919050565b7f4661696c656420746f2073656e642045746865720000000000000000000000005f82015250565b5f610edb601483610abe565b9150610ee682610ea7565b602082019050919050565b5f6020820190508181035f830152610f0881610ecf565b9050919050565b5f604082019050610f225f830185610dba565b610f2f6020830184610a96565b9392505050565b7f4f6e6c79206f776e65722063616e2073657420707269636500000000000000005f82015250565b5f610f6a601883610abe565b9150610f7582610f36565b602082019050919050565b5f6020820190508181035f830152610f9781610f5e565b9050919050565b7f4e487b71000000000000000000000000000000000000000000000000000000005f52601260045260245ffd5b5f610fd58261096c565b9150610fe08361096c565b925082610ff057610fef610f9e565b5b828204905092915050565b5f60208201905061100e5f830184610dba565b92915050565b5f8151905061102281610975565b92915050565b5f6020828403121561103d5761103c610968565b5b5f61104a84828501611014565b91505092915050565b7f596f75206e65656420746f2073656e6420736f6d6520657468657200000000005f82015250565b5f611087601b83610abe565b915061109282611053565b602082019050919050565b5f6020820190508181035f8301526110b48161107b565b9050919050565b7f4e6f7420656e6f75676820746f6b656e7320696e2074686520726573657276655f82015250565b5f6110ef602083610abe565b91506110fa826110bb565b602082019050919050565b5f6020820190508181035f83015261111c816110e3565b9050919050565b7f4f6e6c79206f776e65722063616e2077697468647261772065746865720000005f82015250565b5f611157601d83610abe565b915061116282611123565b602082019050919050565b5f6020820190508181035f8301526111848161114b565b905091905056fea26469706673582212209fb020264a820509ffbb532a81c15b36b1cb14812f79631fd2274971b30edd6c64736f6c63430008150033",
  "immutableReferences": {},
  "source": "// SPDX-License-Identifier: MIT\r\npragma solidity ^0.8.0;\r\n\r\ninterface IERC20 {\r\n    function transfer(address recipient, uint256 amount) external returns (bool);\r\n    function transferFrom(address sender, address recipient, uint256 amount) external returns (bool);\r\n    function balanceOf(address account) external view returns (uint256);\r\n    function approve(address spender, uint256 amount) external returns (bool);\r\n}\r\n\r\ncontract block20 {\r\n    IERC20 public tokenContract;\r\n    uint256 public price;\r\n    address payable public owner;\r\n\r\n    event Sold(address buyer, uint256 amount);\r\n    event Purchased(address seller, uint256 amount);\r\n\r\n    constructor(IERC20 _tokenContract, uint256 _price) {\r\n        tokenContract = _tokenContract;\r\n        price = _price;\r\n        owner = payable(msg.sender);\r\n    }\r\n\r\n    // Ensure the contract can receive ETH\r\n    receive() external payable {}\r\n\r\n    function buyTokens() external payable {\r\n        uint256 tokenAmount = msg.value / price;\r\n        uint256 contractTokenBalance = tokenContract.balanceOf(address(this));\r\n        require(tokenAmount > 0, \"You need to send some ether\");\r\n        require(tokenAmount <= contractTokenBalance, \"Not enough tokens in the reserve\");\r\n\r\n        tokenContract.transfer(msg.sender, tokenAmount);\r\n        emit Sold(msg.sender, tokenAmount);\r\n    }\r\n\r\n    function sellTokens(uint256 tokenAmount) external {\r\n        require(tokenAmount > 0, \"You need to sell at least some tokens\");\r\n        uint256 etherAmount = tokenAmount * price;\r\n        require(address(this).balance >= etherAmount, \"Not enough ether in the reserve\");\r\n\r\n        // Make sure the contract is approved to transfer the tokens on behalf of the seller\r\n        require(tokenContract.transferFrom(msg.sender, address(this), tokenAmount), \"Token transfer failed\");\r\n\r\n        // Send ether to the seller. It's important to do this last to prevent re-entrancy attacks\r\n        (bool sent, ) = msg.sender.call{value: etherAmount}(\"\");\r\n        require(sent, \"Failed to send Ether\");\r\n\r\n        emit Purchased(msg.sender, tokenAmount);\r\n    }\r\n\r\n    function withdrawETH() external {\r\n        require(msg.sender == owner, \"Only owner can withdraw ether\");\r\n        owner.transfer(address(this).balance);\r\n    }\r\n\r\n    function withdrawTokens(uint256 tokenAmount) external {\r\n        require(msg.sender == owner, \"Only owner can withdraw tokens\");\r\n        require(tokenContract.transfer(owner, tokenAmount), \"Failed to transfer tokens\");\r\n    }\r\n\r\n    // Function to update the token price\r\n    function setPrice(uint256 _price) external {\r\n        require(msg.sender == owner, \"Only owner can set price\");\r\n        price = _price;\r\n    }\r\n}\r\n\r\n",
  "sourcePath": "C:\\Users\\user\\Documents\\CodingFiles_ubuffalo\\cse426blockchain\\ProjPhase2\\RealEstateProject\\contracts\\block20.sol",
  "compiler": {
    "name": "solc",
    "version": "0.8.21+commit.d9974bed.Emscripten.clang"
  },
  "schemaVersion": "3.4.16",
  "updatedAt": "2023-11-15T18:44:13.786Z",
  "devdoc": {
    "kind": "dev",
    "methods": {},
    "version": 1
  },
  "userdoc": {
    "kind": "user",
    "methods": {},
    "version": 1
  }
}