{
  "contractName": "FreeBlock20",
  "abi": [
    {
      "inputs": [],
      "stateMutability": "nonpayable",
      "type": "constructor"
    },
    {
      "inputs": [
        {
          "internalType": "address",
          "name": "spender",
          "type": "address"
        },
        {
          "internalType": "uint256",
          "name": "allowance",
          "type": "uint256"
        },
        {
          "internalType": "uint256",
          "name": "needed",
          "type": "uint256"
        }
      ],
      "name": "ERC20InsufficientAllowance",
      "type": "error"
    },
    {
      "inputs": [
        {
          "internalType": "address",
          "name": "sender",
          "type": "address"
        },
        {
          "internalType": "uint256",
          "name": "balance",
          "type": "uint256"
        },
        {
          "internalType": "uint256",
          "name": "needed",
          "type": "uint256"
        }
      ],
      "name": "ERC20InsufficientBalance",
      "type": "error"
    },
    {
      "inputs": [
        {
          "internalType": "address",
          "name": "approver",
          "type": "address"
        }
      ],
      "name": "ERC20InvalidApprover",
      "type": "error"
    },
    {
      "inputs": [
        {
          "internalType": "address",
          "name": "receiver",
          "type": "address"
        }
      ],
      "name": "ERC20InvalidReceiver",
      "type": "error"
    },
    {
      "inputs": [
        {
          "internalType": "address",
          "name": "sender",
          "type": "address"
        }
      ],
      "name": "ERC20InvalidSender",
      "type": "error"
    },
    {
      "inputs": [
        {
          "internalType": "address",
          "name": "spender",
          "type": "address"
        }
      ],
      "name": "ERC20InvalidSpender",
      "type": "error"
    },
    {
      "inputs": [
        {
          "internalType": "address",
          "name": "owner",
          "type": "address"
        }
      ],
      "name": "OwnableInvalidOwner",
      "type": "error"
    },
    {
      "inputs": [
        {
          "internalType": "address",
          "name": "account",
          "type": "address"
        }
      ],
      "name": "OwnableUnauthorizedAccount",
      "type": "error"
    },
    {
      "anonymous": false,
      "inputs": [
        {
          "indexed": true,
          "internalType": "address",
          "name": "owner",
          "type": "address"
        },
        {
          "indexed": true,
          "internalType": "address",
          "name": "spender",
          "type": "address"
        },
        {
          "indexed": false,
          "internalType": "uint256",
          "name": "value",
          "type": "uint256"
        }
      ],
      "name": "Approval",
      "type": "event"
    },
    {
      "anonymous": false,
      "inputs": [
        {
          "indexed": true,
          "internalType": "address",
          "name": "previousOwner",
          "type": "address"
        },
        {
          "indexed": true,
          "internalType": "address",
          "name": "newOwner",
          "type": "address"
        }
      ],
      "name": "OwnershipTransferred",
      "type": "event"
    },
    {
      "anonymous": false,
      "inputs": [
        {
          "indexed": true,
          "internalType": "address",
          "name": "from",
          "type": "address"
        },
        {
          "indexed": true,
          "internalType": "address",
          "name": "to",
          "type": "address"
        },
        {
          "indexed": false,
          "internalType": "uint256",
          "name": "value",
          "type": "uint256"
        }
      ],
      "name": "Transfer",
      "type": "event"
    },
    {
      "inputs": [
        {
          "internalType": "address",
          "name": "owner",
          "type": "address"
        },
        {
          "internalType": "address",
          "name": "spender",
          "type": "address"
        }
      ],
      "name": "allowance",
      "outputs": [
        {
          "internalType": "uint256",
          "name": "",
          "type": "uint256"
        }
      ],
      "stateMutability": "view",
      "type": "function"
    },
    {
      "inputs": [
        {
          "internalType": "address",
          "name": "spender",
          "type": "address"
        },
        {
          "internalType": "uint256",
          "name": "value",
          "type": "uint256"
        }
      ],
      "name": "approve",
      "outputs": [
        {
          "internalType": "bool",
          "name": "",
          "type": "bool"
        }
      ],
      "stateMutability": "nonpayable",
      "type": "function"
    },
    {
      "inputs": [
        {
          "internalType": "address",
          "name": "account",
          "type": "address"
        }
      ],
      "name": "balanceOf",
      "outputs": [
        {
          "internalType": "uint256",
          "name": "",
          "type": "uint256"
        }
      ],
      "stateMutability": "view",
      "type": "function"
    },
    {
      "inputs": [],
      "name": "decimals",
      "outputs": [
        {
          "internalType": "uint8",
          "name": "",
          "type": "uint8"
        }
      ],
      "stateMutability": "view",
      "type": "function"
    },
    {
      "inputs": [],
      "name": "name",
      "outputs": [
        {
          "internalType": "string",
          "name": "",
          "type": "string"
        }
      ],
      "stateMutability": "view",
      "type": "function"
    },
    {
      "inputs": [],
      "name": "owner",
      "outputs": [
        {
          "internalType": "address",
          "name": "",
          "type": "address"
        }
      ],
      "stateMutability": "view",
      "type": "function"
    },
    {
      "inputs": [],
      "name": "renounceOwnership",
      "outputs": [],
      "stateMutability": "nonpayable",
      "type": "function"
    },
    {
      "inputs": [],
      "name": "symbol",
      "outputs": [
        {
          "internalType": "string",
          "name": "",
          "type": "string"
        }
      ],
      "stateMutability": "view",
      "type": "function"
    },
    {
      "inputs": [],
      "name": "totalSupply",
      "outputs": [
        {
          "internalType": "uint256",
          "name": "",
          "type": "uint256"
        }
      ],
      "stateMutability": "view",
      "type": "function"
    },
    {
      "inputs": [
        {
          "internalType": "address",
          "name": "to",
          "type": "address"
        },
        {
          "internalType": "uint256",
          "name": "value",
          "type": "uint256"
        }
      ],
      "name": "transfer",
      "outputs": [
        {
          "internalType": "bool",
          "name": "",
          "type": "bool"
        }
      ],
      "stateMutability": "nonpayable",
      "type": "function"
    },
    {
      "inputs": [
        {
          "internalType": "address",
          "name": "from",
          "type": "address"
        },
        {
          "internalType": "address",
          "name": "to",
          "type": "address"
        },
        {
          "internalType": "uint256",
          "name": "value",
          "type": "uint256"
        }
      ],
      "name": "transferFrom",
      "outputs": [
        {
          "internalType": "bool",
          "name": "",
          "type": "bool"
        }
      ],
      "stateMutability": "nonpayable",
      "type": "function"
    },
    {
      "inputs": [
        {
          "internalType": "address",
          "name": "newOwner",
          "type": "address"
        }
      ],
      "name": "transferOwnership",
      "outputs": [],
      "stateMutability": "nonpayable",
      "type": "function"
    },
    {
      "inputs": [
        {
          "internalType": "uint256",
          "name": "amount",
          "type": "uint256"
        }
      ],
      "name": "getFreeTokens",
      "outputs": [],
      "stateMutability": "nonpayable",
      "type": "function"
    }
  ],
  "bytecode": "0x608060405234801562000010575f80fd5b50336040518060400160405280600b81526020017f46726565426c6f636b32300000000000000000000000000000000000000000008152506040518060400160405280600481526020017f464232300000000000000000000000000000000000000000000000000000000081525081600390816200008f91906200074e565b508060049081620000a191906200074e565b5050505f73ffffffffffffffffffffffffffffffffffffffff168173ffffffffffffffffffffffffffffffffffffffff160362000117575f6040517f1e4fbdf70000000000000000000000000000000000000000000000000000000081526004016200010e919062000875565b60405180910390fd5b62000128816200017160201b60201c565b506200016b336200013e6200023460201b60201c565b60ff16600a6200014f919062000a0d565b620f42406200015f919062000a5d565b6200023c60201b60201c565b62000b48565b5f60055f9054906101000a900473ffffffffffffffffffffffffffffffffffffffff1690508160055f6101000a81548173ffffffffffffffffffffffffffffffffffffffff021916908373ffffffffffffffffffffffffffffffffffffffff1602179055508173ffffffffffffffffffffffffffffffffffffffff168173ffffffffffffffffffffffffffffffffffffffff167f8be0079c531659141344cd1fd0a4f28419497f9722a3daafe3b4186f6b6457e060405160405180910390a35050565b5f6012905090565b5f73ffffffffffffffffffffffffffffffffffffffff168273ffffffffffffffffffffffffffffffffffffffff1603620002af575f6040517fec442f05000000000000000000000000000000000000000000000000000000008152600401620002a6919062000875565b60405180910390fd5b620002c25f8383620002c660201b60201c565b5050565b5f73ffffffffffffffffffffffffffffffffffffffff168373ffffffffffffffffffffffffffffffffffffffff16036200031a578060025f8282546200030d919062000aa7565b92505081905550620003eb565b5f805f8573ffffffffffffffffffffffffffffffffffffffff1673ffffffffffffffffffffffffffffffffffffffff1681526020019081526020015f2054905081811015620003a6578381836040517fe450d38c0000000000000000000000000000000000000000000000000000000081526004016200039d9392919062000af2565b60405180910390fd5b8181035f808673ffffffffffffffffffffffffffffffffffffffff1673ffffffffffffffffffffffffffffffffffffffff1681526020019081526020015f2081905550505b5f73ffffffffffffffffffffffffffffffffffffffff168273ffffffffffffffffffffffffffffffffffffffff160362000434578060025f82825403925050819055506200047e565b805f808473ffffffffffffffffffffffffffffffffffffffff1673ffffffffffffffffffffffffffffffffffffffff1681526020019081526020015f205f82825401925050819055505b8173ffffffffffffffffffffffffffffffffffffffff168373ffffffffffffffffffffffffffffffffffffffff167fddf252ad1be2c89b69c2b068fc378daa952ba7f163c4a11628f55a4df523b3ef83604051620004dd919062000b2d565b60405180910390a3505050565b5f81519050919050565b7f4e487b71000000000000000000000000000000000000000000000000000000005f52604160045260245ffd5b7f4e487b71000000000000000000000000000000000000000000000000000000005f52602260045260245ffd5b5f60028204905060018216806200056657607f821691505b6020821081036200057c576200057b62000521565b5b50919050565b5f819050815f5260205f209050919050565b5f6020601f8301049050919050565b5f82821b905092915050565b5f60088302620005e07fffffffffffffffffffffffffffffffffffffffffffffffffffffffffffffffff82620005a3565b620005ec8683620005a3565b95508019841693508086168417925050509392505050565b5f819050919050565b5f819050919050565b5f62000636620006306200062a8462000604565b6200060d565b62000604565b9050919050565b5f819050919050565b620006518362000616565b6200066962000660826200063d565b848454620005af565b825550505050565b5f90565b6200067f62000671565b6200068c81848462000646565b505050565b5b81811015620006b357620006a75f8262000675565b60018101905062000692565b5050565b601f8211156200070257620006cc8162000582565b620006d78462000594565b81016020851015620006e7578190505b620006ff620006f68562000594565b83018262000691565b50505b505050565b5f82821c905092915050565b5f620007245f198460080262000707565b1980831691505092915050565b5f6200073e838362000713565b9150826002028217905092915050565b6200075982620004ea565b67ffffffffffffffff811115620007755762000774620004f4565b5b6200078182546200054e565b6200078e828285620006b7565b5f60209050601f831160018114620007c4575f8415620007af578287015190505b620007bb858262000731565b8655506200082a565b601f198416620007d48662000582565b5f5b82811015620007fd57848901518255600182019150602085019450602081019050620007d6565b868310156200081d578489015162000819601f89168262000713565b8355505b6001600288020188555050505b505050505050565b5f73ffffffffffffffffffffffffffffffffffffffff82169050919050565b5f6200085d8262000832565b9050919050565b6200086f8162000851565b82525050565b5f6020820190506200088a5f83018462000864565b92915050565b7f4e487b71000000000000000000000000000000000000000000000000000000005f52601160045260245ffd5b5f8160011c9050919050565b5f808291508390505b60018511156200091a57808604811115620008f257620008f162000890565b5b6001851615620009025780820291505b80810290506200091285620008bd565b9450620008d2565b94509492505050565b5f8262000934576001905062000a06565b8162000943575f905062000a06565b81600181146200095c576002811462000967576200099d565b600191505062000a06565b60ff8411156200097c576200097b62000890565b5b8360020a91508482111562000996576200099562000890565b5b5062000a06565b5060208310610133831016604e8410600b8410161715620009d75782820a905083811115620009d157620009d062000890565b5b62000a06565b620009e68484846001620008c9565b9250905081840481111562000a0057620009ff62000890565b5b81810290505b9392505050565b5f62000a198262000604565b915062000a268362000604565b925062000a557fffffffffffffffffffffffffffffffffffffffffffffffffffffffffffffffff848462000923565b905092915050565b5f62000a698262000604565b915062000a768362000604565b925082820262000a868162000604565b9150828204841483151762000aa05762000a9f62000890565b5b5092915050565b5f62000ab38262000604565b915062000ac08362000604565b925082820190508082111562000adb5762000ada62000890565b5b92915050565b62000aec8162000604565b82525050565b5f60608201905062000b075f83018662000864565b62000b16602083018562000ae1565b62000b25604083018462000ae1565b949350505050565b5f60208201905062000b425f83018462000ae1565b92915050565b6113df8062000b565f395ff3fe608060405234801561000f575f80fd5b50600436106100cd575f3560e01c8063715018a61161008a57806395d89b411161006457806395d89b41146101ff578063a9059cbb1461021d578063dd62ed3e1461024d578063f2fde38b1461027d576100cd565b8063715018a6146101bb5780637b101b1b146101c55780638da5cb5b146101e1576100cd565b806306fdde03146100d1578063095ea7b3146100ef57806318160ddd1461011f57806323b872dd1461013d578063313ce5671461016d57806370a082311461018b575b5f80fd5b6100d9610299565b6040516100e69190610e0b565b60405180910390f35b61010960048036038101906101049190610ebc565b610329565b6040516101169190610f14565b60405180910390f35b61012761034b565b6040516101349190610f3c565b60405180910390f35b61015760048036038101906101529190610f55565b610354565b6040516101649190610f14565b60405180910390f35b610175610382565b6040516101829190610fc0565b60405180910390f35b6101a560048036038101906101a09190610fd9565b61038a565b6040516101b29190610f3c565b60405180910390f35b6101c36103cf565b005b6101df60048036038101906101da9190611004565b6103e2565b005b6101e9610455565b6040516101f6919061103e565b60405180910390f35b61020761047d565b6040516102149190610e0b565b60405180910390f35b61023760048036038101906102329190610ebc565b61050d565b6040516102449190610f14565b60405180910390f35b61026760048036038101906102629190611057565b61052f565b6040516102749190610f3c565b60405180910390f35b61029760048036038101906102929190610fd9565b6105b1565b005b6060600380546102a8906110c2565b80601f01602080910402602001604051908101604052809291908181526020018280546102d4906110c2565b801561031f5780601f106102f65761010080835404028352916020019161031f565b820191905f5260205f20905b81548152906001019060200180831161030257829003601f168201915b5050505050905090565b5f80610333610635565b905061034081858561063c565b600191505092915050565b5f600254905090565b5f8061035e610635565b905061036b85828561064e565b6103768585856106e0565b60019150509392505050565b5f6012905090565b5f805f8373ffffffffffffffffffffffffffffffffffffffff1673ffffffffffffffffffffffffffffffffffffffff1681526020019081526020015f20549050919050565b6103d76107d0565b6103e05f610857565b565b6103ea610382565b60ff16600a6103f9919061124e565b6103e86104069190611298565b811115610448576040517f08c379a000000000000000000000000000000000000000000000000000000000815260040161043f90611323565b60405180910390fd5b610452338261091a565b50565b5f60055f9054906101000a900473ffffffffffffffffffffffffffffffffffffffff16905090565b60606004805461048c906110c2565b80601f01602080910402602001604051908101604052809291908181526020018280546104b8906110c2565b80156105035780601f106104da57610100808354040283529160200191610503565b820191905f5260205f20905b8154815290600101906020018083116104e657829003601f168201915b5050505050905090565b5f80610517610635565b90506105248185856106e0565b600191505092915050565b5f60015f8473ffffffffffffffffffffffffffffffffffffffff1673ffffffffffffffffffffffffffffffffffffffff1681526020019081526020015f205f8373ffffffffffffffffffffffffffffffffffffffff1673ffffffffffffffffffffffffffffffffffffffff1681526020019081526020015f2054905092915050565b6105b96107d0565b5f73ffffffffffffffffffffffffffffffffffffffff168173ffffffffffffffffffffffffffffffffffffffff1603610629575f6040517f1e4fbdf7000000000000000000000000000000000000000000000000000000008152600401610620919061103e565b60405180910390fd5b61063281610857565b50565b5f33905090565b6106498383836001610999565b505050565b5f610659848461052f565b90507fffffffffffffffffffffffffffffffffffffffffffffffffffffffffffffffff81146106da57818110156106cb578281836040517ffb8f41b20000000000000000000000000000000000000000000000000000000081526004016106c293929190611341565b60405180910390fd5b6106d984848484035f610999565b5b50505050565b5f73ffffffffffffffffffffffffffffffffffffffff168373ffffffffffffffffffffffffffffffffffffffff1603610750575f6040517f96c6fd1e000000000000000000000000000000000000000000000000000000008152600401610747919061103e565b60405180910390fd5b5f73ffffffffffffffffffffffffffffffffffffffff168273ffffffffffffffffffffffffffffffffffffffff16036107c0575f6040517fec442f050000000000000000000000000000000000000000000000000000000081526004016107b7919061103e565b60405180910390fd5b6107cb838383610b68565b505050565b6107d8610635565b73ffffffffffffffffffffffffffffffffffffffff166107f6610455565b73ffffffffffffffffffffffffffffffffffffffff161461085557610819610635565b6040517f118cdaa700000000000000000000000000000000000000000000000000000000815260040161084c919061103e565b60405180910390fd5b565b5f60055f9054906101000a900473ffffffffffffffffffffffffffffffffffffffff1690508160055f6101000a81548173ffffffffffffffffffffffffffffffffffffffff021916908373ffffffffffffffffffffffffffffffffffffffff1602179055508173ffffffffffffffffffffffffffffffffffffffff168173ffffffffffffffffffffffffffffffffffffffff167f8be0079c531659141344cd1fd0a4f28419497f9722a3daafe3b4186f6b6457e060405160405180910390a35050565b5f73ffffffffffffffffffffffffffffffffffffffff168273ffffffffffffffffffffffffffffffffffffffff160361098a575f6040517fec442f05000000000000000000000000000000000000000000000000000000008152600401610981919061103e565b60405180910390fd5b6109955f8383610b68565b5050565b5f73ffffffffffffffffffffffffffffffffffffffff168473ffffffffffffffffffffffffffffffffffffffff1603610a09575f6040517fe602df05000000000000000000000000000000000000000000000000000000008152600401610a00919061103e565b60405180910390fd5b5f73ffffffffffffffffffffffffffffffffffffffff168373ffffffffffffffffffffffffffffffffffffffff1603610a79575f6040517f94280d62000000000000000000000000000000000000000000000000000000008152600401610a70919061103e565b60405180910390fd5b8160015f8673ffffffffffffffffffffffffffffffffffffffff1673ffffffffffffffffffffffffffffffffffffffff1681526020019081526020015f205f8573ffffffffffffffffffffffffffffffffffffffff1673ffffffffffffffffffffffffffffffffffffffff1681526020019081526020015f20819055508015610b62578273ffffffffffffffffffffffffffffffffffffffff168473ffffffffffffffffffffffffffffffffffffffff167f8c5be1e5ebec7d5bd14f71427d1e84f3dd0314c0f7b2291e5b200ac8c7c3b92584604051610b599190610f3c565b60405180910390a35b50505050565b5f73ffffffffffffffffffffffffffffffffffffffff168373ffffffffffffffffffffffffffffffffffffffff1603610bb8578060025f828254610bac9190611376565b92505081905550610c86565b5f805f8573ffffffffffffffffffffffffffffffffffffffff1673ffffffffffffffffffffffffffffffffffffffff1681526020019081526020015f2054905081811015610c41578381836040517fe450d38c000000000000000000000000000000000000000000000000000000008152600401610c3893929190611341565b60405180910390fd5b8181035f808673ffffffffffffffffffffffffffffffffffffffff1673ffffffffffffffffffffffffffffffffffffffff1681526020019081526020015f2081905550505b5f73ffffffffffffffffffffffffffffffffffffffff168273ffffffffffffffffffffffffffffffffffffffff1603610ccd578060025f8282540392505081905550610d17565b805f808473ffffffffffffffffffffffffffffffffffffffff1673ffffffffffffffffffffffffffffffffffffffff1681526020019081526020015f205f82825401925050819055505b8173ffffffffffffffffffffffffffffffffffffffff168373ffffffffffffffffffffffffffffffffffffffff167fddf252ad1be2c89b69c2b068fc378daa952ba7f163c4a11628f55a4df523b3ef83604051610d749190610f3c565b60405180910390a3505050565b5f81519050919050565b5f82825260208201905092915050565b5f5b83811015610db8578082015181840152602081019050610d9d565b5f8484015250505050565b5f601f19601f8301169050919050565b5f610ddd82610d81565b610de78185610d8b565b9350610df7818560208601610d9b565b610e0081610dc3565b840191505092915050565b5f6020820190508181035f830152610e238184610dd3565b905092915050565b5f80fd5b5f73ffffffffffffffffffffffffffffffffffffffff82169050919050565b5f610e5882610e2f565b9050919050565b610e6881610e4e565b8114610e72575f80fd5b50565b5f81359050610e8381610e5f565b92915050565b5f819050919050565b610e9b81610e89565b8114610ea5575f80fd5b50565b5f81359050610eb681610e92565b92915050565b5f8060408385031215610ed257610ed1610e2b565b5b5f610edf85828601610e75565b9250506020610ef085828601610ea8565b9150509250929050565b5f8115159050919050565b610f0e81610efa565b82525050565b5f602082019050610f275f830184610f05565b92915050565b610f3681610e89565b82525050565b5f602082019050610f4f5f830184610f2d565b92915050565b5f805f60608486031215610f6c57610f6b610e2b565b5b5f610f7986828701610e75565b9350506020610f8a86828701610e75565b9250506040610f9b86828701610ea8565b9150509250925092565b5f60ff82169050919050565b610fba81610fa5565b82525050565b5f602082019050610fd35f830184610fb1565b92915050565b5f60208284031215610fee57610fed610e2b565b5b5f610ffb84828501610e75565b91505092915050565b5f6020828403121561101957611018610e2b565b5b5f61102684828501610ea8565b91505092915050565b61103881610e4e565b82525050565b5f6020820190506110515f83018461102f565b92915050565b5f806040838503121561106d5761106c610e2b565b5b5f61107a85828601610e75565b925050602061108b85828601610e75565b9150509250929050565b7f4e487b71000000000000000000000000000000000000000000000000000000005f52602260045260245ffd5b5f60028204905060018216806110d957607f821691505b6020821081036110ec576110eb611095565b5b50919050565b7f4e487b71000000000000000000000000000000000000000000000000000000005f52601160045260245ffd5b5f8160011c9050919050565b5f808291508390505b6001851115611174578086048111156111505761114f6110f2565b5b600185161561115f5780820291505b808102905061116d8561111f565b9450611134565b94509492505050565b5f8261118c5760019050611247565b81611199575f9050611247565b81600181146111af57600281146111b9576111e8565b6001915050611247565b60ff8411156111cb576111ca6110f2565b5b8360020a9150848211156111e2576111e16110f2565b5b50611247565b5060208310610133831016604e8410600b841016171561121d5782820a905083811115611218576112176110f2565b5b611247565b61122a848484600161112b565b92509050818404811115611241576112406110f2565b5b81810290505b9392505050565b5f61125882610e89565b915061126383610e89565b92506112907fffffffffffffffffffffffffffffffffffffffffffffffffffffffffffffffff848461117d565b905092915050565b5f6112a282610e89565b91506112ad83610e89565b92508282026112bb81610e89565b915082820484148315176112d2576112d16110f2565b5b5092915050565b7f5265717565737420746f6f206d756368000000000000000000000000000000005f82015250565b5f61130d601083610d8b565b9150611318826112d9565b602082019050919050565b5f6020820190508181035f83015261133a81611301565b9050919050565b5f6060820190506113545f83018661102f565b6113616020830185610f2d565b61136e6040830184610f2d565b949350505050565b5f61138082610e89565b915061138b83610e89565b92508282019050808211156113a3576113a26110f2565b5b9291505056fea2646970667358221220ca0b46d33ef2490d6dc367a52c73855e2945f0a96a9501cfebe632897d53dba764736f6c63430008150033",
  "immutableReferences": {},
  "source": "// SPDX-License-Identifier: MIT\r\npragma solidity ^0.8.0;\r\n\r\nimport \"@openzeppelin/contracts/token/ERC20/ERC20.sol\";\r\nimport \"@openzeppelin/contracts/access/Ownable.sol\";\r\n\r\ncontract FreeBlock20 is ERC20, Ownable {\r\n    constructor() ERC20(\"FreeBlock20\", \"FB20\") Ownable(msg.sender) {\r\n        _mint(msg.sender, 1000000 * (10 ** uint256(decimals())));\r\n    }\r\n\r\n    function getFreeTokens(uint256 amount) public {\r\n        require(amount <= 1000 * (10 ** uint256(decimals())), \"Request too much\");\r\n        _mint(msg.sender, amount);\r\n    }\r\n}\r\n",
  "sourcePath": "C:\\Users\\user\\Documents\\CodingFiles_ubuffalo\\cse426blockchain\\ProjPhase2\\RealEstateProject\\contracts\\freeblock20.sol",
  "compiler": {
    "name": "solc",
    "version": "0.8.21+commit.d9974bed.Emscripten.clang"
  },
  "schemaVersion": "3.4.16",
  "updatedAt": "2023-11-15T19:02:51.617Z",
  "devdoc": {
    "errors": {
      "ERC20InsufficientAllowance(address,uint256,uint256)": [
        {
          "details": "Indicates a failure with the `spender`s `allowance`. Used in transfers.",
          "params": {
            "allowance": "Amount of tokens a `spender` is allowed to operate with.",
            "needed": "Minimum amount required to perform a transfer.",
            "spender": "Address that may be allowed to operate on tokens without being their owner."
          }
        }
      ],
      "ERC20InsufficientBalance(address,uint256,uint256)": [
        {
          "details": "Indicates an error related to the current `balance` of a `sender`. Used in transfers.",
          "params": {
            "balance": "Current balance for the interacting account.",
            "needed": "Minimum amount required to perform a transfer.",
            "sender": "Address whose tokens are being transferred."
          }
        }
      ],
      "ERC20InvalidApprover(address)": [
        {
          "details": "Indicates a failure with the `approver` of a token to be approved. Used in approvals.",
          "params": {
            "approver": "Address initiating an approval operation."
          }
        }
      ],
      "ERC20InvalidReceiver(address)": [
        {
          "details": "Indicates a failure with the token `receiver`. Used in transfers.",
          "params": {
            "receiver": "Address to which tokens are being transferred."
          }
        }
      ],
      "ERC20InvalidSender(address)": [
        {
          "details": "Indicates a failure with the token `sender`. Used in transfers.",
          "params": {
            "sender": "Address whose tokens are being transferred."
          }
        }
      ],
      "ERC20InvalidSpender(address)": [
        {
          "details": "Indicates a failure with the `spender` to be approved. Used in approvals.",
          "params": {
            "spender": "Address that may be allowed to operate on tokens without being their owner."
          }
        }
      ],
      "OwnableInvalidOwner(address)": [
        {
          "details": "The owner is not a valid owner account. (eg. `address(0)`)"
        }
      ],
      "OwnableUnauthorizedAccount(address)": [
        {
          "details": "The caller account is not authorized to perform an operation."
        }
      ]
    },
    "events": {
      "Approval(address,address,uint256)": {
        "details": "Emitted when the allowance of a `spender` for an `owner` is set by a call to {approve}. `value` is the new allowance."
      },
      "Transfer(address,address,uint256)": {
        "details": "Emitted when `value` tokens are moved from one account (`from`) to another (`to`). Note that `value` may be zero."
      }
    },
    "kind": "dev",
    "methods": {
      "allowance(address,address)": {
        "details": "See {IERC20-allowance}."
      },
      "approve(address,uint256)": {
        "details": "See {IERC20-approve}. NOTE: If `value` is the maximum `uint256`, the allowance is not updated on `transferFrom`. This is semantically equivalent to an infinite approval. Requirements: - `spender` cannot be the zero address."
      },
      "balanceOf(address)": {
        "details": "See {IERC20-balanceOf}."
      },
      "decimals()": {
        "details": "Returns the number of decimals used to get its user representation. For example, if `decimals` equals `2`, a balance of `505` tokens should be displayed to a user as `5.05` (`505 / 10 ** 2`). Tokens usually opt for a value of 18, imitating the relationship between Ether and Wei. This is the default value returned by this function, unless it's overridden. NOTE: This information is only used for _display_ purposes: it in no way affects any of the arithmetic of the contract, including {IERC20-balanceOf} and {IERC20-transfer}."
      },
      "name()": {
        "details": "Returns the name of the token."
      },
      "owner()": {
        "details": "Returns the address of the current owner."
      },
      "renounceOwnership()": {
        "details": "Leaves the contract without owner. It will not be possible to call `onlyOwner` functions. Can only be called by the current owner. NOTE: Renouncing ownership will leave the contract without an owner, thereby disabling any functionality that is only available to the owner."
      },
      "symbol()": {
        "details": "Returns the symbol of the token, usually a shorter version of the name."
      },
      "totalSupply()": {
        "details": "See {IERC20-totalSupply}."
      },
      "transfer(address,uint256)": {
        "details": "See {IERC20-transfer}. Requirements: - `to` cannot be the zero address. - the caller must have a balance of at least `value`."
      },
      "transferFrom(address,address,uint256)": {
        "details": "See {IERC20-transferFrom}. Emits an {Approval} event indicating the updated allowance. This is not required by the EIP. See the note at the beginning of {ERC20}. NOTE: Does not update the allowance if the current allowance is the maximum `uint256`. Requirements: - `from` and `to` cannot be the zero address. - `from` must have a balance of at least `value`. - the caller must have allowance for ``from``'s tokens of at least `value`."
      },
      "transferOwnership(address)": {
        "details": "Transfers ownership of the contract to a new account (`newOwner`). Can only be called by the current owner."
      }
    },
    "version": 1
  },
  "userdoc": {
    "kind": "user",
    "methods": {},
    "version": 1
  }
}