{
  "contractName": "MarketPrice",
  "abi": [
    {
      "inputs": [
        {
          "internalType": "uint256",
          "name": "initialSupply",
          "type": "uint256"
        }
      ],
      "stateMutability": "nonpayable",
      "type": "constructor"
    },
    {
      "inputs": [
        {
          "internalType": "address",
          "name": "spender",
          "type": "address"
        },
        {
          "internalType": "uint256",
          "name": "allowance",
          "type": "uint256"
        },
        {
          "internalType": "uint256",
          "name": "needed",
          "type": "uint256"
        }
      ],
      "name": "ERC20InsufficientAllowance",
      "type": "error"
    },
    {
      "inputs": [
        {
          "internalType": "address",
          "name": "sender",
          "type": "address"
        },
        {
          "internalType": "uint256",
          "name": "balance",
          "type": "uint256"
        },
        {
          "internalType": "uint256",
          "name": "needed",
          "type": "uint256"
        }
      ],
      "name": "ERC20InsufficientBalance",
      "type": "error"
    },
    {
      "inputs": [
        {
          "internalType": "address",
          "name": "approver",
          "type": "address"
        }
      ],
      "name": "ERC20InvalidApprover",
      "type": "error"
    },
    {
      "inputs": [
        {
          "internalType": "address",
          "name": "receiver",
          "type": "address"
        }
      ],
      "name": "ERC20InvalidReceiver",
      "type": "error"
    },
    {
      "inputs": [
        {
          "internalType": "address",
          "name": "sender",
          "type": "address"
        }
      ],
      "name": "ERC20InvalidSender",
      "type": "error"
    },
    {
      "inputs": [
        {
          "internalType": "address",
          "name": "spender",
          "type": "address"
        }
      ],
      "name": "ERC20InvalidSpender",
      "type": "error"
    },
    {
      "anonymous": false,
      "inputs": [
        {
          "indexed": true,
          "internalType": "address",
          "name": "owner",
          "type": "address"
        },
        {
          "indexed": true,
          "internalType": "address",
          "name": "spender",
          "type": "address"
        },
        {
          "indexed": false,
          "internalType": "uint256",
          "name": "value",
          "type": "uint256"
        }
      ],
      "name": "Approval",
      "type": "event"
    },
    {
      "anonymous": false,
      "inputs": [
        {
          "indexed": true,
          "internalType": "address",
          "name": "from",
          "type": "address"
        },
        {
          "indexed": true,
          "internalType": "address",
          "name": "to",
          "type": "address"
        },
        {
          "indexed": false,
          "internalType": "uint256",
          "name": "value",
          "type": "uint256"
        }
      ],
      "name": "Transfer",
      "type": "event"
    },
    {
      "inputs": [
        {
          "internalType": "address",
          "name": "owner",
          "type": "address"
        },
        {
          "internalType": "address",
          "name": "spender",
          "type": "address"
        }
      ],
      "name": "allowance",
      "outputs": [
        {
          "internalType": "uint256",
          "name": "",
          "type": "uint256"
        }
      ],
      "stateMutability": "view",
      "type": "function"
    },
    {
      "inputs": [
        {
          "internalType": "address",
          "name": "spender",
          "type": "address"
        },
        {
          "internalType": "uint256",
          "name": "value",
          "type": "uint256"
        }
      ],
      "name": "approve",
      "outputs": [
        {
          "internalType": "bool",
          "name": "",
          "type": "bool"
        }
      ],
      "stateMutability": "nonpayable",
      "type": "function"
    },
    {
      "inputs": [
        {
          "internalType": "address",
          "name": "account",
          "type": "address"
        }
      ],
      "name": "balanceOf",
      "outputs": [
        {
          "internalType": "uint256",
          "name": "",
          "type": "uint256"
        }
      ],
      "stateMutability": "view",
      "type": "function"
    },
    {
      "inputs": [
        {
          "internalType": "address",
          "name": "",
          "type": "address"
        }
      ],
      "name": "buyers",
      "outputs": [
        {
          "internalType": "uint256",
          "name": "housePrice",
          "type": "uint256"
        },
        {
          "internalType": "bool",
          "name": "purchased",
          "type": "bool"
        },
        {
          "internalType": "uint256",
          "name": "userBalance",
          "type": "uint256"
        },
        {
          "internalType": "uint256",
          "name": "sellerBalance",
          "type": "uint256"
        },
        {
          "internalType": "uint256",
          "name": "ethereumPayment",
          "type": "uint256"
        },
        {
          "internalType": "address",
          "name": "sellerID",
          "type": "address"
        },
        {
          "internalType": "address",
          "name": "purchaserID",
          "type": "address"
        },
        {
          "internalType": "uint256",
          "name": "purchaserHouseValue",
          "type": "uint256"
        }
      ],
      "stateMutability": "view",
      "type": "function"
    },
    {
      "inputs": [],
      "name": "decimals",
      "outputs": [
        {
          "internalType": "uint8",
          "name": "",
          "type": "uint8"
        }
      ],
      "stateMutability": "view",
      "type": "function"
    },
    {
      "inputs": [],
      "name": "name",
      "outputs": [
        {
          "internalType": "string",
          "name": "",
          "type": "string"
        }
      ],
      "stateMutability": "view",
      "type": "function"
    },
    {
      "inputs": [],
      "name": "symbol",
      "outputs": [
        {
          "internalType": "string",
          "name": "",
          "type": "string"
        }
      ],
      "stateMutability": "view",
      "type": "function"
    },
    {
      "inputs": [],
      "name": "totalSupply",
      "outputs": [
        {
          "internalType": "uint256",
          "name": "",
          "type": "uint256"
        }
      ],
      "stateMutability": "view",
      "type": "function"
    },
    {
      "inputs": [
        {
          "internalType": "address",
          "name": "to",
          "type": "address"
        },
        {
          "internalType": "uint256",
          "name": "value",
          "type": "uint256"
        }
      ],
      "name": "transfer",
      "outputs": [
        {
          "internalType": "bool",
          "name": "",
          "type": "bool"
        }
      ],
      "stateMutability": "nonpayable",
      "type": "function"
    },
    {
      "inputs": [
        {
          "internalType": "address",
          "name": "from",
          "type": "address"
        },
        {
          "internalType": "address",
          "name": "to",
          "type": "address"
        },
        {
          "internalType": "uint256",
          "name": "value",
          "type": "uint256"
        }
      ],
      "name": "transferFrom",
      "outputs": [
        {
          "internalType": "bool",
          "name": "",
          "type": "bool"
        }
      ],
      "stateMutability": "nonpayable",
      "type": "function"
    },
    {
      "inputs": [
        {
          "internalType": "uint256",
          "name": "housePrice",
          "type": "uint256"
        }
      ],
      "name": "dollarConversion",
      "outputs": [],
      "stateMutability": "nonpayable",
      "type": "function"
    },
    {
      "inputs": [
        {
          "internalType": "uint256",
          "name": "housePrice",
          "type": "uint256"
        },
        {
          "internalType": "uint256",
          "name": "purchaserHouseValue",
          "type": "uint256"
        }
      ],
      "name": "createBuyer",
      "outputs": [],
      "stateMutability": "nonpayable",
      "type": "function"
    },
    {
      "inputs": [],
      "name": "deficit",
      "outputs": [],
      "stateMutability": "nonpayable",
      "type": "function"
    }
  ],
  "bytecode": "0x608060405234801562000010575f80fd5b50604051620021fd380380620021fd8339818101604052810190620000369190620003ea565b6040518060400160405280600381526020017f554e4400000000000000000000000000000000000000000000000000000000008152506040518060400160405280600681526020017f446f6c6c617200000000000000000000000000000000000000000000000000008152508160039081620000b3919062000675565b508060049081620000c5919062000675565b5050505f6c01431e0fae6d7217caa000000082620000e4919062000786565b9050620000f833826200010060201b60201c565b5050620008cf565b5f73ffffffffffffffffffffffffffffffffffffffff168273ffffffffffffffffffffffffffffffffffffffff160362000173575f6040517fec442f050000000000000000000000000000000000000000000000000000000081526004016200016a919062000813565b60405180910390fd5b620001865f83836200018a60201b60201c565b5050565b5f73ffffffffffffffffffffffffffffffffffffffff168373ffffffffffffffffffffffffffffffffffffffff1603620001de578060025f828254620001d191906200082e565b92505081905550620002af565b5f805f8573ffffffffffffffffffffffffffffffffffffffff1673ffffffffffffffffffffffffffffffffffffffff1681526020019081526020015f20549050818110156200026a578381836040517fe450d38c000000000000000000000000000000000000000000000000000000008152600401620002619392919062000879565b60405180910390fd5b8181035f808673ffffffffffffffffffffffffffffffffffffffff1673ffffffffffffffffffffffffffffffffffffffff1681526020019081526020015f2081905550505b5f73ffffffffffffffffffffffffffffffffffffffff168273ffffffffffffffffffffffffffffffffffffffff1603620002f8578060025f828254039250508190555062000342565b805f808473ffffffffffffffffffffffffffffffffffffffff1673ffffffffffffffffffffffffffffffffffffffff1681526020019081526020015f205f82825401925050819055505b8173ffffffffffffffffffffffffffffffffffffffff168373ffffffffffffffffffffffffffffffffffffffff167fddf252ad1be2c89b69c2b068fc378daa952ba7f163c4a11628f55a4df523b3ef83604051620003a19190620008b4565b60405180910390a3505050565b5f80fd5b5f819050919050565b620003c681620003b2565b8114620003d1575f80fd5b50565b5f81519050620003e481620003bb565b92915050565b5f60208284031215620004025762000401620003ae565b5b5f6200041184828501620003d4565b91505092915050565b5f81519050919050565b7f4e487b71000000000000000000000000000000000000000000000000000000005f52604160045260245ffd5b7f4e487b71000000000000000000000000000000000000000000000000000000005f52602260045260245ffd5b5f60028204905060018216806200049657607f821691505b602082108103620004ac57620004ab62000451565b5b50919050565b5f819050815f5260205f209050919050565b5f6020601f8301049050919050565b5f82821b905092915050565b5f60088302620005107fffffffffffffffffffffffffffffffffffffffffffffffffffffffffffffffff82620004d3565b6200051c8683620004d3565b95508019841693508086168417925050509392505050565b5f819050919050565b5f6200055d620005576200055184620003b2565b62000534565b620003b2565b9050919050565b5f819050919050565b62000578836200053d565b62000590620005878262000564565b848454620004df565b825550505050565b5f90565b620005a662000598565b620005b38184846200056d565b505050565b5b81811015620005da57620005ce5f826200059c565b600181019050620005b9565b5050565b601f8211156200062957620005f381620004b2565b620005fe84620004c4565b810160208510156200060e578190505b620006266200061d85620004c4565b830182620005b8565b50505b505050565b5f82821c905092915050565b5f6200064b5f19846008026200062e565b1980831691505092915050565b5f6200066583836200063a565b9150826002028217905092915050565b62000680826200041a565b67ffffffffffffffff8111156200069c576200069b62000424565b5b620006a882546200047e565b620006b5828285620005de565b5f60209050601f831160018114620006eb575f8415620006d6578287015190505b620006e2858262000658565b86555062000751565b601f198416620006fb86620004b2565b5f5b828110156200072457848901518255600182019150602085019450602081019050620006fd565b8683101562000744578489015162000740601f8916826200063a565b8355505b6001600288020188555050505b505050505050565b7f4e487b71000000000000000000000000000000000000000000000000000000005f52601160045260245ffd5b5f6200079282620003b2565b91506200079f83620003b2565b9250828202620007af81620003b2565b91508282048414831517620007c957620007c862000759565b5b5092915050565b5f73ffffffffffffffffffffffffffffffffffffffff82169050919050565b5f620007fb82620007d0565b9050919050565b6200080d81620007ef565b82525050565b5f602082019050620008285f83018462000802565b92915050565b5f6200083a82620003b2565b91506200084783620003b2565b925082820190508082111562000862576200086162000759565b5b92915050565b6200087381620003b2565b82525050565b5f6060820190506200088e5f83018662000802565b6200089d602083018562000868565b620008ac604083018462000868565b949350505050565b5f602082019050620008c95f83018462000868565b92915050565b61192080620008dd5f395ff3fe608060405234801561000f575f80fd5b50600436106100cd575f3560e01c806349aa2a141161008a57806395d89b411161006457806395d89b41146101fd57806397a993aa1461021b578063a9059cbb14610252578063dd62ed3e14610282576100cd565b806349aa2a14146101a75780635426fa8a146101c357806370a08231146101cd576100cd565b806306fdde03146100d1578063095ea7b3146100ef57806318160ddd1461011f57806323b872dd1461013d57806329069c731461016d578063313ce56714610189575b5f80fd5b6100d96102b2565b6040516100e6919061118f565b60405180910390f35b61010960048036038101906101049190611240565b610342565b6040516101169190611298565b60405180910390f35b610127610364565b60405161013491906112c0565b60405180910390f35b610157600480360381019061015291906112d9565b61036d565b6040516101649190611298565b60405180910390f35b61018760048036038101906101829190611329565b61039b565b005b6101916103ce565b60405161019e919061136f565b60405180910390f35b6101c160048036038101906101bc9190611388565b6103d6565b005b6101cb610512565b005b6101e760048036038101906101e291906113c6565b610891565b6040516101f491906112c0565b60405180910390f35b6102056108d6565b604051610212919061118f565b60405180910390f35b610235600480360381019061023091906113c6565b610966565b604051610249989796959493929190611400565b60405180910390f35b61026c60048036038101906102679190611240565b6109f4565b6040516102799190611298565b60405180910390f35b61029c6004803603810190610297919061147c565b610a16565b6040516102a991906112c0565b60405180910390f35b6060600380546102c1906114e7565b80601f01602080910402602001604051908101604052809291908181526020018280546102ed906114e7565b80156103385780601f1061030f57610100808354040283529160200191610338565b820191905f5260205f20905b81548152906001019060200180831161031b57829003601f168201915b5050505050905090565b5f8061034c610a98565b9050610359818585610a9f565b600191505092915050565b5f600254905090565b5f80610377610a98565b9050610384858285610ab1565b61038f858585610b43565b60019150509392505050565b5f6103a46103ce565b60ff16600a6103b39190611673565b826103be91906116bd565b90506103ca3382610c33565b5050565b5f6012905090565b6103de61109a565b82815f018181525050818160e00181815250508060055f3373ffffffffffffffffffffffffffffffffffffffff1673ffffffffffffffffffffffffffffffffffffffff1681526020019081526020015f205f820151815f01556020820151816001015f6101000a81548160ff02191690831515021790555060408201518160020155606082015181600301556080820151816004015560a0820151816005015f6101000a81548173ffffffffffffffffffffffffffffffffffffffff021916908373ffffffffffffffffffffffffffffffffffffffff16021790555060c0820151816006015f6101000a81548173ffffffffffffffffffffffffffffffffffffffff021916908373ffffffffffffffffffffffffffffffffffffffff16021790555060e08201518160070155905050505050565b5f60055f3373ffffffffffffffffffffffffffffffffffffffff1673ffffffffffffffffffffffffffffffffffffffff1681526020019081526020015f205f015403610593576040517f08c379a000000000000000000000000000000000000000000000000000000000815260040161058a90611748565b60405180910390fd5b60055f3373ffffffffffffffffffffffffffffffffffffffff1673ffffffffffffffffffffffffffffffffffffffff1681526020019081526020015f206007015460055f3373ffffffffffffffffffffffffffffffffffffffff1673ffffffffffffffffffffffffffffffffffffffff1681526020019081526020015f205f015411610654576040517f08c379a000000000000000000000000000000000000000000000000000000000815260040161064b906117b0565b60405180910390fd5b60055f3373ffffffffffffffffffffffffffffffffffffffff1673ffffffffffffffffffffffffffffffffffffffff1681526020019081526020015f206007015460055f3373ffffffffffffffffffffffffffffffffffffffff1673ffffffffffffffffffffffffffffffffffffffff1681526020019081526020015f205f01546106df91906117ce565b60055f3373ffffffffffffffffffffffffffffffffffffffff1673ffffffffffffffffffffffffffffffffffffffff1681526020019081526020015f206004018190555060055f3373ffffffffffffffffffffffffffffffffffffffff1673ffffffffffffffffffffffffffffffffffffffff1681526020019081526020015f206004015461076d33610891565b10156107ae576040517f08c379a00000000000000000000000000000000000000000000000000000000081526004016107a59061184b565b60405180910390fd5b6107f83060055f3373ffffffffffffffffffffffffffffffffffffffff1673ffffffffffffffffffffffffffffffffffffffff1681526020019081526020015f20600401546109f4565b5060055f3373ffffffffffffffffffffffffffffffffffffffff1673ffffffffffffffffffffffffffffffffffffffff1681526020019081526020015f206004015460055f3373ffffffffffffffffffffffffffffffffffffffff1673ffffffffffffffffffffffffffffffffffffffff1681526020019081526020015f206002015f82825461088891906117ce565b92505081905550565b5f805f8373ffffffffffffffffffffffffffffffffffffffff1673ffffffffffffffffffffffffffffffffffffffff1681526020019081526020015f20549050919050565b6060600480546108e5906114e7565b80601f0160208091040260200160405190810160405280929190818152602001828054610911906114e7565b801561095c5780601f106109335761010080835404028352916020019161095c565b820191905f5260205f20905b81548152906001019060200180831161093f57829003601f168201915b5050505050905090565b6005602052805f5260405f205f91509050805f015490806001015f9054906101000a900460ff1690806002015490806003015490806004015490806005015f9054906101000a900473ffffffffffffffffffffffffffffffffffffffff1690806006015f9054906101000a900473ffffffffffffffffffffffffffffffffffffffff16908060070154905088565b5f806109fe610a98565b9050610a0b818585610b43565b600191505092915050565b5f60015f8473ffffffffffffffffffffffffffffffffffffffff1673ffffffffffffffffffffffffffffffffffffffff1681526020019081526020015f205f8373ffffffffffffffffffffffffffffffffffffffff1673ffffffffffffffffffffffffffffffffffffffff1681526020019081526020015f2054905092915050565b5f33905090565b610aac8383836001610cb2565b505050565b5f610abc8484610a16565b90507fffffffffffffffffffffffffffffffffffffffffffffffffffffffffffffffff8114610b3d5781811015610b2e578281836040517ffb8f41b2000000000000000000000000000000000000000000000000000000008152600401610b2593929190611869565b60405180910390fd5b610b3c84848484035f610cb2565b5b50505050565b5f73ffffffffffffffffffffffffffffffffffffffff168373ffffffffffffffffffffffffffffffffffffffff1603610bb3575f6040517f96c6fd1e000000000000000000000000000000000000000000000000000000008152600401610baa919061189e565b60405180910390fd5b5f73ffffffffffffffffffffffffffffffffffffffff168273ffffffffffffffffffffffffffffffffffffffff1603610c23575f6040517fec442f05000000000000000000000000000000000000000000000000000000008152600401610c1a919061189e565b60405180910390fd5b610c2e838383610e81565b505050565b5f73ffffffffffffffffffffffffffffffffffffffff168273ffffffffffffffffffffffffffffffffffffffff1603610ca3575f6040517fec442f05000000000000000000000000000000000000000000000000000000008152600401610c9a919061189e565b60405180910390fd5b610cae5f8383610e81565b5050565b5f73ffffffffffffffffffffffffffffffffffffffff168473ffffffffffffffffffffffffffffffffffffffff1603610d22575f6040517fe602df05000000000000000000000000000000000000000000000000000000008152600401610d19919061189e565b60405180910390fd5b5f73ffffffffffffffffffffffffffffffffffffffff168373ffffffffffffffffffffffffffffffffffffffff1603610d92575f6040517f94280d62000000000000000000000000000000000000000000000000000000008152600401610d89919061189e565b60405180910390fd5b8160015f8673ffffffffffffffffffffffffffffffffffffffff1673ffffffffffffffffffffffffffffffffffffffff1681526020019081526020015f205f8573ffffffffffffffffffffffffffffffffffffffff1673ffffffffffffffffffffffffffffffffffffffff1681526020019081526020015f20819055508015610e7b578273ffffffffffffffffffffffffffffffffffffffff168473ffffffffffffffffffffffffffffffffffffffff167f8c5be1e5ebec7d5bd14f71427d1e84f3dd0314c0f7b2291e5b200ac8c7c3b92584604051610e7291906112c0565b60405180910390a35b50505050565b5f73ffffffffffffffffffffffffffffffffffffffff168373ffffffffffffffffffffffffffffffffffffffff1603610ed1578060025f828254610ec591906118b7565b92505081905550610f9f565b5f805f8573ffffffffffffffffffffffffffffffffffffffff1673ffffffffffffffffffffffffffffffffffffffff1681526020019081526020015f2054905081811015610f5a578381836040517fe450d38c000000000000000000000000000000000000000000000000000000008152600401610f5193929190611869565b60405180910390fd5b8181035f808673ffffffffffffffffffffffffffffffffffffffff1673ffffffffffffffffffffffffffffffffffffffff1681526020019081526020015f2081905550505b5f73ffffffffffffffffffffffffffffffffffffffff168273ffffffffffffffffffffffffffffffffffffffff1603610fe6578060025f8282540392505081905550611030565b805f808473ffffffffffffffffffffffffffffffffffffffff1673ffffffffffffffffffffffffffffffffffffffff1681526020019081526020015f205f82825401925050819055505b8173ffffffffffffffffffffffffffffffffffffffff168373ffffffffffffffffffffffffffffffffffffffff167fddf252ad1be2c89b69c2b068fc378daa952ba7f163c4a11628f55a4df523b3ef8360405161108d91906112c0565b60405180910390a3505050565b6040518061010001604052805f81526020015f151581526020015f81526020015f81526020015f81526020015f73ffffffffffffffffffffffffffffffffffffffff1681526020015f73ffffffffffffffffffffffffffffffffffffffff1681526020015f81525090565b5f81519050919050565b5f82825260208201905092915050565b5f5b8381101561113c578082015181840152602081019050611121565b5f8484015250505050565b5f601f19601f8301169050919050565b5f61116182611105565b61116b818561110f565b935061117b81856020860161111f565b61118481611147565b840191505092915050565b5f6020820190508181035f8301526111a78184611157565b905092915050565b5f80fd5b5f73ffffffffffffffffffffffffffffffffffffffff82169050919050565b5f6111dc826111b3565b9050919050565b6111ec816111d2565b81146111f6575f80fd5b50565b5f81359050611207816111e3565b92915050565b5f819050919050565b61121f8161120d565b8114611229575f80fd5b50565b5f8135905061123a81611216565b92915050565b5f8060408385031215611256576112556111af565b5b5f611263858286016111f9565b92505060206112748582860161122c565b9150509250929050565b5f8115159050919050565b6112928161127e565b82525050565b5f6020820190506112ab5f830184611289565b92915050565b6112ba8161120d565b82525050565b5f6020820190506112d35f8301846112b1565b92915050565b5f805f606084860312156112f0576112ef6111af565b5b5f6112fd868287016111f9565b935050602061130e868287016111f9565b925050604061131f8682870161122c565b9150509250925092565b5f6020828403121561133e5761133d6111af565b5b5f61134b8482850161122c565b91505092915050565b5f60ff82169050919050565b61136981611354565b82525050565b5f6020820190506113825f830184611360565b92915050565b5f806040838503121561139e5761139d6111af565b5b5f6113ab8582860161122c565b92505060206113bc8582860161122c565b9150509250929050565b5f602082840312156113db576113da6111af565b5b5f6113e8848285016111f9565b91505092915050565b6113fa816111d2565b82525050565b5f610100820190506114145f83018b6112b1565b611421602083018a611289565b61142e60408301896112b1565b61143b60608301886112b1565b61144860808301876112b1565b61145560a08301866113f1565b61146260c08301856113f1565b61146f60e08301846112b1565b9998505050505050505050565b5f8060408385031215611492576114916111af565b5b5f61149f858286016111f9565b92505060206114b0858286016111f9565b9150509250929050565b7f4e487b71000000000000000000000000000000000000000000000000000000005f52602260045260245ffd5b5f60028204905060018216806114fe57607f821691505b602082108103611511576115106114ba565b5b50919050565b7f4e487b71000000000000000000000000000000000000000000000000000000005f52601160045260245ffd5b5f8160011c9050919050565b5f808291508390505b60018511156115995780860481111561157557611574611517565b5b60018516156115845780820291505b808102905061159285611544565b9450611559565b94509492505050565b5f826115b1576001905061166c565b816115be575f905061166c565b81600181146115d457600281146115de5761160d565b600191505061166c565b60ff8411156115f0576115ef611517565b5b8360020a91508482111561160757611606611517565b5b5061166c565b5060208310610133831016604e8410600b84101617156116425782820a90508381111561163d5761163c611517565b5b61166c565b61164f8484846001611550565b9250905081840481111561166657611665611517565b5b81810290505b9392505050565b5f61167d8261120d565b91506116888361120d565b92506116b57fffffffffffffffffffffffffffffffffffffffffffffffffffffffffffffffff84846115a2565b905092915050565b5f6116c78261120d565b91506116d28361120d565b92508282026116e08161120d565b915082820484148315176116f7576116f6611517565b5b5092915050565b7f4275796572206e6f7420637265617465640000000000000000000000000000005f82015250565b5f61173260118361110f565b915061173d826116fe565b602082019050919050565b5f6020820190508181035f83015261175f81611726565b9050919050565b7f4e6f2064656669636974206578697374730000000000000000000000000000005f82015250565b5f61179a60118361110f565b91506117a582611766565b602082019050919050565b5f6020820190508181035f8301526117c78161178e565b9050919050565b5f6117d88261120d565b91506117e38361120d565b92508282039050818111156117fb576117fa611517565b5b92915050565b7f496e73756666696369656e742066756e647300000000000000000000000000005f82015250565b5f61183560128361110f565b915061184082611801565b602082019050919050565b5f6020820190508181035f83015261186281611829565b9050919050565b5f60608201905061187c5f8301866113f1565b61188960208301856112b1565b61189660408301846112b1565b949350505050565b5f6020820190506118b15f8301846113f1565b92915050565b5f6118c18261120d565b91506118cc8361120d565b92508282019050808211156118e4576118e3611517565b5b9291505056fea2646970667358221220112bf8d62f63903fc1770119138a040b96cd05e6f04b9a9382a656e9718fb57264736f6c63430008150033",
  "immutableReferences": {},
  "source": "// SPDX-License-Identifier: MIT\r\n\r\npragma solidity ^0.8.9;\r\n\r\nimport \"@openzeppelin/contracts/token/ERC20/ERC20.sol\";\r\n\r\ncontract MarketPrice is ERC20 {\r\n\r\n    constructor(uint256 initialSupply) ERC20(\"UND\", \"Dollar\") {\r\n        uint256 initialSupplyWithDecimals = initialSupply * (10 * 10**28);\r\n        _mint(msg.sender, initialSupplyWithDecimals);\r\n    }\r\n\r\n    struct Economics {\r\n        uint256 housePrice;\r\n        bool purchased;\r\n        uint256 userBalance;\r\n        uint256 sellerBalance;\r\n        uint256 ethereumPayment;\r\n        address sellerID;\r\n        address purchaserID;\r\n        uint256 purchaserHouseValue;\r\n    }\r\n\r\n    mapping(address => Economics) public buyers;\r\n\r\n    function dollarConversion(uint256 housePrice) public {\r\n        uint256 tokenAmount = housePrice * (10  ** uint256(decimals()));\r\n        _mint(msg.sender, tokenAmount);\r\n    }\r\n\r\n    function createBuyer(uint256 housePrice, uint256 purchaserHouseValue) public {\r\n        Economics memory newBuyer;\r\n        newBuyer.housePrice = housePrice;\r\n        newBuyer.purchaserHouseValue = purchaserHouseValue;\r\n        buyers[msg.sender] = newBuyer;\r\n    }\r\n\r\n    function deficit() public {\r\n        require(buyers[msg.sender].housePrice != 0, \"Buyer not created\");\r\n        require(buyers[msg.sender].housePrice > buyers[msg.sender].purchaserHouseValue, \"No deficit exists\");\r\n\r\n        buyers[msg.sender].ethereumPayment = buyers[msg.sender].housePrice - buyers[msg.sender].purchaserHouseValue;\r\n        require(balanceOf(msg.sender) >= buyers[msg.sender].ethereumPayment, \"Insufficient funds\");\r\n\r\n        transfer(address(this), buyers[msg.sender].ethereumPayment);\r\n        buyers[msg.sender].userBalance -= buyers[msg.sender].ethereumPayment;\r\n    }\r\n}",
  "sourcePath": "C:\\Users\\user\\Documents\\CodingFiles_ubuffalo\\cse426blockchain\\ProjPhase2\\RealEstateProject\\contracts\\ERC20.sol",
  "compiler": {
    "name": "solc",
    "version": "0.8.21+commit.d9974bed.Emscripten.clang"
  },
  "schemaVersion": "3.4.16",
  "updatedAt": "2023-11-15T15:59:22.249Z",
  "devdoc": {
    "errors": {
      "ERC20InsufficientAllowance(address,uint256,uint256)": [
        {
          "details": "Indicates a failure with the `spender`s `allowance`. Used in transfers.",
          "params": {
            "allowance": "Amount of tokens a `spender` is allowed to operate with.",
            "needed": "Minimum amount required to perform a transfer.",
            "spender": "Address that may be allowed to operate on tokens without being their owner."
          }
        }
      ],
      "ERC20InsufficientBalance(address,uint256,uint256)": [
        {
          "details": "Indicates an error related to the current `balance` of a `sender`. Used in transfers.",
          "params": {
            "balance": "Current balance for the interacting account.",
            "needed": "Minimum amount required to perform a transfer.",
            "sender": "Address whose tokens are being transferred."
          }
        }
      ],
      "ERC20InvalidApprover(address)": [
        {
          "details": "Indicates a failure with the `approver` of a token to be approved. Used in approvals.",
          "params": {
            "approver": "Address initiating an approval operation."
          }
        }
      ],
      "ERC20InvalidReceiver(address)": [
        {
          "details": "Indicates a failure with the token `receiver`. Used in transfers.",
          "params": {
            "receiver": "Address to which tokens are being transferred."
          }
        }
      ],
      "ERC20InvalidSender(address)": [
        {
          "details": "Indicates a failure with the token `sender`. Used in transfers.",
          "params": {
            "sender": "Address whose tokens are being transferred."
          }
        }
      ],
      "ERC20InvalidSpender(address)": [
        {
          "details": "Indicates a failure with the `spender` to be approved. Used in approvals.",
          "params": {
            "spender": "Address that may be allowed to operate on tokens without being their owner."
          }
        }
      ]
    },
    "events": {
      "Approval(address,address,uint256)": {
        "details": "Emitted when the allowance of a `spender` for an `owner` is set by a call to {approve}. `value` is the new allowance."
      },
      "Transfer(address,address,uint256)": {
        "details": "Emitted when `value` tokens are moved from one account (`from`) to another (`to`). Note that `value` may be zero."
      }
    },
    "kind": "dev",
    "methods": {
      "allowance(address,address)": {
        "details": "See {IERC20-allowance}."
      },
      "approve(address,uint256)": {
        "details": "See {IERC20-approve}. NOTE: If `value` is the maximum `uint256`, the allowance is not updated on `transferFrom`. This is semantically equivalent to an infinite approval. Requirements: - `spender` cannot be the zero address."
      },
      "balanceOf(address)": {
        "details": "See {IERC20-balanceOf}."
      },
      "decimals()": {
        "details": "Returns the number of decimals used to get its user representation. For example, if `decimals` equals `2`, a balance of `505` tokens should be displayed to a user as `5.05` (`505 / 10 ** 2`). Tokens usually opt for a value of 18, imitating the relationship between Ether and Wei. This is the default value returned by this function, unless it's overridden. NOTE: This information is only used for _display_ purposes: it in no way affects any of the arithmetic of the contract, including {IERC20-balanceOf} and {IERC20-transfer}."
      },
      "name()": {
        "details": "Returns the name of the token."
      },
      "symbol()": {
        "details": "Returns the symbol of the token, usually a shorter version of the name."
      },
      "totalSupply()": {
        "details": "See {IERC20-totalSupply}."
      },
      "transfer(address,uint256)": {
        "details": "See {IERC20-transfer}. Requirements: - `to` cannot be the zero address. - the caller must have a balance of at least `value`."
      },
      "transferFrom(address,address,uint256)": {
        "details": "See {IERC20-transferFrom}. Emits an {Approval} event indicating the updated allowance. This is not required by the EIP. See the note at the beginning of {ERC20}. NOTE: Does not update the allowance if the current allowance is the maximum `uint256`. Requirements: - `from` and `to` cannot be the zero address. - `from` must have a balance of at least `value`. - the caller must have allowance for ``from``'s tokens of at least `value`."
      }
    },
    "version": 1
  },
  "userdoc": {
    "kind": "user",
    "methods": {},
    "version": 1
  }
}