{
  "contractName": "RealEstate",
  "abi": [
    {
      "inputs": [],
      "stateMutability": "nonpayable",
      "type": "constructor"
    },
    {
      "inputs": [],
      "name": "ERC721EnumerableForbiddenBatchMint",
      "type": "error"
    },
    {
      "inputs": [
        {
          "internalType": "address",
          "name": "sender",
          "type": "address"
        },
        {
          "internalType": "uint256",
          "name": "tokenId",
          "type": "uint256"
        },
        {
          "internalType": "address",
          "name": "owner",
          "type": "address"
        }
      ],
      "name": "ERC721IncorrectOwner",
      "type": "error"
    },
    {
      "inputs": [
        {
          "internalType": "address",
          "name": "operator",
          "type": "address"
        },
        {
          "internalType": "uint256",
          "name": "tokenId",
          "type": "uint256"
        }
      ],
      "name": "ERC721InsufficientApproval",
      "type": "error"
    },
    {
      "inputs": [
        {
          "internalType": "address",
          "name": "approver",
          "type": "address"
        }
      ],
      "name": "ERC721InvalidApprover",
      "type": "error"
    },
    {
      "inputs": [
        {
          "internalType": "address",
          "name": "operator",
          "type": "address"
        }
      ],
      "name": "ERC721InvalidOperator",
      "type": "error"
    },
    {
      "inputs": [
        {
          "internalType": "address",
          "name": "owner",
          "type": "address"
        }
      ],
      "name": "ERC721InvalidOwner",
      "type": "error"
    },
    {
      "inputs": [
        {
          "internalType": "address",
          "name": "receiver",
          "type": "address"
        }
      ],
      "name": "ERC721InvalidReceiver",
      "type": "error"
    },
    {
      "inputs": [
        {
          "internalType": "address",
          "name": "sender",
          "type": "address"
        }
      ],
      "name": "ERC721InvalidSender",
      "type": "error"
    },
    {
      "inputs": [
        {
          "internalType": "uint256",
          "name": "tokenId",
          "type": "uint256"
        }
      ],
      "name": "ERC721NonexistentToken",
      "type": "error"
    },
    {
      "inputs": [
        {
          "internalType": "address",
          "name": "owner",
          "type": "address"
        },
        {
          "internalType": "uint256",
          "name": "index",
          "type": "uint256"
        }
      ],
      "name": "ERC721OutOfBoundsIndex",
      "type": "error"
    },
    {
      "anonymous": false,
      "inputs": [
        {
          "indexed": true,
          "internalType": "address",
          "name": "owner",
          "type": "address"
        },
        {
          "indexed": true,
          "internalType": "address",
          "name": "approved",
          "type": "address"
        },
        {
          "indexed": true,
          "internalType": "uint256",
          "name": "tokenId",
          "type": "uint256"
        }
      ],
      "name": "Approval",
      "type": "event"
    },
    {
      "anonymous": false,
      "inputs": [
        {
          "indexed": true,
          "internalType": "address",
          "name": "owner",
          "type": "address"
        },
        {
          "indexed": true,
          "internalType": "address",
          "name": "operator",
          "type": "address"
        },
        {
          "indexed": false,
          "internalType": "bool",
          "name": "approved",
          "type": "bool"
        }
      ],
      "name": "ApprovalForAll",
      "type": "event"
    },
    {
      "anonymous": false,
      "inputs": [],
      "name": "Finalized",
      "type": "event"
    },
    {
      "anonymous": false,
      "inputs": [],
      "name": "Initialized",
      "type": "event"
    },
    {
      "anonymous": false,
      "inputs": [],
      "name": "Purchased",
      "type": "event"
    },
    {
      "anonymous": false,
      "inputs": [
        {
          "indexed": true,
          "internalType": "address",
          "name": "from",
          "type": "address"
        },
        {
          "indexed": true,
          "internalType": "address",
          "name": "to",
          "type": "address"
        },
        {
          "indexed": true,
          "internalType": "uint256",
          "name": "tokenId",
          "type": "uint256"
        }
      ],
      "name": "Transfer",
      "type": "event"
    },
    {
      "anonymous": false,
      "inputs": [],
      "name": "TransferTransaction",
      "type": "event"
    },
    {
      "inputs": [
        {
          "internalType": "address",
          "name": "to",
          "type": "address"
        },
        {
          "internalType": "uint256",
          "name": "tokenId",
          "type": "uint256"
        }
      ],
      "name": "approve",
      "outputs": [],
      "stateMutability": "nonpayable",
      "type": "function"
    },
    {
      "inputs": [
        {
          "internalType": "address",
          "name": "owner",
          "type": "address"
        }
      ],
      "name": "balanceOf",
      "outputs": [
        {
          "internalType": "uint256",
          "name": "",
          "type": "uint256"
        }
      ],
      "stateMutability": "view",
      "type": "function"
    },
    {
      "inputs": [
        {
          "internalType": "uint256",
          "name": "tokenId",
          "type": "uint256"
        }
      ],
      "name": "getApproved",
      "outputs": [
        {
          "internalType": "address",
          "name": "",
          "type": "address"
        }
      ],
      "stateMutability": "view",
      "type": "function"
    },
    {
      "inputs": [
        {
          "internalType": "address",
          "name": "owner",
          "type": "address"
        },
        {
          "internalType": "address",
          "name": "operator",
          "type": "address"
        }
      ],
      "name": "isApprovedForAll",
      "outputs": [
        {
          "internalType": "bool",
          "name": "",
          "type": "bool"
        }
      ],
      "stateMutability": "view",
      "type": "function"
    },
    {
      "inputs": [],
      "name": "name",
      "outputs": [
        {
          "internalType": "string",
          "name": "",
          "type": "string"
        }
      ],
      "stateMutability": "view",
      "type": "function"
    },
    {
      "inputs": [],
      "name": "nextPropertyId",
      "outputs": [
        {
          "internalType": "uint256",
          "name": "",
          "type": "uint256"
        }
      ],
      "stateMutability": "view",
      "type": "function"
    },
    {
      "inputs": [
        {
          "internalType": "uint256",
          "name": "tokenId",
          "type": "uint256"
        }
      ],
      "name": "ownerOf",
      "outputs": [
        {
          "internalType": "address",
          "name": "",
          "type": "address"
        }
      ],
      "stateMutability": "view",
      "type": "function"
    },
    {
      "inputs": [
        {
          "internalType": "uint256",
          "name": "",
          "type": "uint256"
        }
      ],
      "name": "propertyDetails",
      "outputs": [
        {
          "internalType": "uint256",
          "name": "housePrice",
          "type": "uint256"
        },
        {
          "internalType": "bool",
          "name": "purchased",
          "type": "bool"
        },
        {
          "internalType": "uint256",
          "name": "userBalance",
          "type": "uint256"
        },
        {
          "internalType": "uint256",
          "name": "sellerBalance",
          "type": "uint256"
        },
        {
          "internalType": "uint256",
          "name": "ethereumPayment",
          "type": "uint256"
        },
        {
          "internalType": "uint256",
          "name": "sellerID",
          "type": "uint256"
        },
        {
          "internalType": "uint256",
          "name": "purchaserID",
          "type": "uint256"
        },
        {
          "internalType": "uint256",
          "name": "purchaserHouseValue",
          "type": "uint256"
        },
        {
          "internalType": "uint256",
          "name": "sellerhouserights",
          "type": "uint256"
        },
        {
          "internalType": "uint256",
          "name": "purchaserhouserights",
          "type": "uint256"
        }
      ],
      "stateMutability": "view",
      "type": "function"
    },
    {
      "inputs": [
        {
          "internalType": "address",
          "name": "from",
          "type": "address"
        },
        {
          "internalType": "address",
          "name": "to",
          "type": "address"
        },
        {
          "internalType": "uint256",
          "name": "tokenId",
          "type": "uint256"
        }
      ],
      "name": "safeTransferFrom",
      "outputs": [],
      "stateMutability": "nonpayable",
      "type": "function"
    },
    {
      "inputs": [
        {
          "internalType": "address",
          "name": "from",
          "type": "address"
        },
        {
          "internalType": "address",
          "name": "to",
          "type": "address"
        },
        {
          "internalType": "uint256",
          "name": "tokenId",
          "type": "uint256"
        },
        {
          "internalType": "bytes",
          "name": "data",
          "type": "bytes"
        }
      ],
      "name": "safeTransferFrom",
      "outputs": [],
      "stateMutability": "nonpayable",
      "type": "function"
    },
    {
      "inputs": [],
      "name": "seller",
      "outputs": [
        {
          "internalType": "address",
          "name": "",
          "type": "address"
        }
      ],
      "stateMutability": "view",
      "type": "function"
    },
    {
      "inputs": [
        {
          "internalType": "address",
          "name": "operator",
          "type": "address"
        },
        {
          "internalType": "bool",
          "name": "approved",
          "type": "bool"
        }
      ],
      "name": "setApprovalForAll",
      "outputs": [],
      "stateMutability": "nonpayable",
      "type": "function"
    },
    {
      "inputs": [
        {
          "internalType": "bytes4",
          "name": "interfaceId",
          "type": "bytes4"
        }
      ],
      "name": "supportsInterface",
      "outputs": [
        {
          "internalType": "bool",
          "name": "",
          "type": "bool"
        }
      ],
      "stateMutability": "view",
      "type": "function"
    },
    {
      "inputs": [],
      "name": "symbol",
      "outputs": [
        {
          "internalType": "string",
          "name": "",
          "type": "string"
        }
      ],
      "stateMutability": "view",
      "type": "function"
    },
    {
      "inputs": [
        {
          "internalType": "uint256",
          "name": "index",
          "type": "uint256"
        }
      ],
      "name": "tokenByIndex",
      "outputs": [
        {
          "internalType": "uint256",
          "name": "",
          "type": "uint256"
        }
      ],
      "stateMutability": "view",
      "type": "function"
    },
    {
      "inputs": [
        {
          "internalType": "address",
          "name": "owner",
          "type": "address"
        },
        {
          "internalType": "uint256",
          "name": "index",
          "type": "uint256"
        }
      ],
      "name": "tokenOfOwnerByIndex",
      "outputs": [
        {
          "internalType": "uint256",
          "name": "",
          "type": "uint256"
        }
      ],
      "stateMutability": "view",
      "type": "function"
    },
    {
      "inputs": [],
      "name": "totalSupply",
      "outputs": [
        {
          "internalType": "uint256",
          "name": "",
          "type": "uint256"
        }
      ],
      "stateMutability": "view",
      "type": "function"
    },
    {
      "inputs": [
        {
          "internalType": "address",
          "name": "from",
          "type": "address"
        },
        {
          "internalType": "address",
          "name": "to",
          "type": "address"
        },
        {
          "internalType": "uint256",
          "name": "tokenId",
          "type": "uint256"
        }
      ],
      "name": "transferFrom",
      "outputs": [],
      "stateMutability": "nonpayable",
      "type": "function"
    },
    {
      "inputs": [
        {
          "internalType": "uint256",
          "name": "_housePrice",
          "type": "uint256"
        },
        {
          "internalType": "string",
          "name": "_tokenURI",
          "type": "string"
        }
      ],
      "name": "addProperty",
      "outputs": [
        {
          "internalType": "uint256",
          "name": "",
          "type": "uint256"
        }
      ],
      "stateMutability": "nonpayable",
      "type": "function"
    },
    {
      "inputs": [
        {
          "internalType": "uint256",
          "name": "_propertyId",
          "type": "uint256"
        }
      ],
      "name": "purchaseProperty",
      "outputs": [],
      "stateMutability": "payable",
      "type": "function"
    },
    {
      "inputs": [
        {
          "internalType": "uint256",
          "name": "tokenId",
          "type": "uint256"
        }
      ],
      "name": "tokenURI",
      "outputs": [
        {
          "internalType": "string",
          "name": "",
          "type": "string"
        }
      ],
      "stateMutability": "view",
      "type": "function"
    },
    {
      "inputs": [
        {
          "internalType": "address[]",
          "name": "_to",
          "type": "address[]"
        },
        {
          "internalType": "uint256[]",
          "name": "_propertyIds",
          "type": "uint256[]"
        }
      ],
      "name": "batchTransfer",
      "outputs": [],
      "stateMutability": "nonpayable",
      "type": "function"
    }
  ],
  "bytecode": "0x60806040526001600c5534801562000015575f80fd5b506040518060400160405280600a81526020017f5265616c457374617465000000000000000000000000000000000000000000008152506040518060400160405280600281526020017f5245000000000000000000000000000000000000000000000000000000000000815250815f908162000092919062000351565b508060019081620000a4919062000351565b50505033600d5f6101000a81548173ffffffffffffffffffffffffffffffffffffffff021916908373ffffffffffffffffffffffffffffffffffffffff16021790555062000435565b5f81519050919050565b7f4e487b71000000000000000000000000000000000000000000000000000000005f52604160045260245ffd5b7f4e487b71000000000000000000000000000000000000000000000000000000005f52602260045260245ffd5b5f60028204905060018216806200016957607f821691505b6020821081036200017f576200017e62000124565b5b50919050565b5f819050815f5260205f209050919050565b5f6020601f8301049050919050565b5f82821b905092915050565b5f60088302620001e37fffffffffffffffffffffffffffffffffffffffffffffffffffffffffffffffff82620001a6565b620001ef8683620001a6565b95508019841693508086168417925050509392505050565b5f819050919050565b5f819050919050565b5f62000239620002336200022d8462000207565b62000210565b62000207565b9050919050565b5f819050919050565b620002548362000219565b6200026c620002638262000240565b848454620001b2565b825550505050565b5f90565b6200028262000274565b6200028f81848462000249565b505050565b5b81811015620002b657620002aa5f8262000278565b60018101905062000295565b5050565b601f8211156200030557620002cf8162000185565b620002da8462000197565b81016020851015620002ea578190505b62000302620002f98562000197565b83018262000294565b50505b505050565b5f82821c905092915050565b5f620003275f19846008026200030a565b1980831691505092915050565b5f62000341838362000316565b9150826002028217905092915050565b6200035c82620000ed565b67ffffffffffffffff811115620003785762000377620000f7565b5b62000384825462000151565b62000391828285620002ba565b5f60209050601f831160018114620003c7575f8415620003b2578287015190505b620003be858262000334565b8655506200042d565b601f198416620003d78662000185565b5f5b828110156200040057848901518255600182019150602085019450602081019050620003d9565b868310156200042057848901516200041c601f89168262000316565b8355505b6001600288020188555050505b505050505050565b61314c80620004435f395ff3fe608060405260043610610134575f3560e01c80636352211e116100aa57806395d89b411161006e57806395d89b4114610449578063a22cb46514610473578063b88d4fde1461049b578063c87b56dd146104c3578063e985e9c5146104ff578063ea6770d41461053b57610134565b80636352211e1461034857806370a082311461038457806379d9c439146103c057806381db4147146103dc57806388d695b21461042157610134565b806318160ddd116100fc57806318160ddd1461022c57806323b872dd146102565780632f745c591461027e57806339500f34146102ba57806342842e0e146102e45780634f6ccce71461030c57610134565b806301ffc9a71461013857806306fdde0314610174578063081812fc1461019e57806308551a53146101da578063095ea7b314610204575b5f80fd5b348015610143575f80fd5b5061015e60048036038101906101599190612182565b610577565b60405161016b91906121c7565b60405180910390f35b34801561017f575f80fd5b506101886105f0565b604051610195919061226a565b60405180910390f35b3480156101a9575f80fd5b506101c460048036038101906101bf91906122bd565b61067f565b6040516101d19190612327565b60405180910390f35b3480156101e5575f80fd5b506101ee61069a565b6040516101fb9190612327565b60405180910390f35b34801561020f575f80fd5b5061022a6004803603810190610225919061236a565b6106bf565b005b348015610237575f80fd5b506102406106d5565b60405161024d91906123b7565b60405180910390f35b348015610261575f80fd5b5061027c600480360381019061027791906123d0565b6106e1565b005b348015610289575f80fd5b506102a4600480360381019061029f919061236a565b6107e0565b6040516102b191906123b7565b60405180910390f35b3480156102c5575f80fd5b506102ce610884565b6040516102db91906123b7565b60405180910390f35b3480156102ef575f80fd5b5061030a600480360381019061030591906123d0565b61088a565b005b348015610317575f80fd5b50610332600480360381019061032d91906122bd565b6108a9565b60405161033f91906123b7565b60405180910390f35b348015610353575f80fd5b5061036e600480360381019061036991906122bd565b61091b565b60405161037b9190612327565b60405180910390f35b34801561038f575f80fd5b506103aa60048036038101906103a59190612420565b61092c565b6040516103b791906123b7565b60405180910390f35b6103da60048036038101906103d591906122bd565b6109e2565b005b3480156103e7575f80fd5b5061040260048036038101906103fd91906122bd565b610b59565b6040516104189a9998979695949392919061244b565b60405180910390f35b34801561042c575f80fd5b50610447600480360381019061044291906126e5565b610bb5565b005b348015610454575f80fd5b5061045d610ceb565b60405161046a919061226a565b60405180910390f35b34801561047e575f80fd5b5061049960048036038101906104949190612785565b610d7b565b005b3480156104a6575f80fd5b506104c160048036038101906104bc9190612873565b610d91565b005b3480156104ce575f80fd5b506104e960048036038101906104e491906122bd565b610dae565b6040516104f6919061226a565b60405180910390f35b34801561050a575f80fd5b50610525600480360381019061052091906128f3565b610e4f565b60405161053291906121c7565b60405180910390f35b348015610546575f80fd5b50610561600480360381019061055c91906129cf565b610edd565b60405161056e91906123b7565b60405180910390f35b5f7f780e9d63000000000000000000000000000000000000000000000000000000007bffffffffffffffffffffffffffffffffffffffffffffffffffffffff1916827bffffffffffffffffffffffffffffffffffffffffffffffffffffffff191614806105e957506105e882610fef565b5b9050919050565b60605f80546105fe90612a56565b80601f016020809104026020016040519081016040528092919081815260200182805461062a90612a56565b80156106755780601f1061064c57610100808354040283529160200191610675565b820191905f5260205f20905b81548152906001019060200180831161065857829003601f168201915b5050505050905090565b5f610689826110d0565b5061069382611156565b9050919050565b600d5f9054906101000a900473ffffffffffffffffffffffffffffffffffffffff1681565b6106d182826106cc61118f565b611196565b5050565b5f600880549050905090565b5f73ffffffffffffffffffffffffffffffffffffffff168273ffffffffffffffffffffffffffffffffffffffff1603610751575f6040517f64a0ae920000000000000000000000000000000000000000000000000000000081526004016107489190612327565b60405180910390fd5b5f610764838361075f61118f565b6111a8565b90508373ffffffffffffffffffffffffffffffffffffffff168173ffffffffffffffffffffffffffffffffffffffff16146107da578382826040517f64283d7b0000000000000000000000000000000000000000000000000000000081526004016107d193929190612a86565b60405180910390fd5b50505050565b5f6107ea8361092c565b821061082f5782826040517fa57d13dc000000000000000000000000000000000000000000000000000000008152600401610826929190612abb565b60405180910390fd5b60065f8473ffffffffffffffffffffffffffffffffffffffff1673ffffffffffffffffffffffffffffffffffffffff1681526020019081526020015f205f8381526020019081526020015f2054905092915050565b600c5481565b6108a483838360405180602001604052805f815250610d91565b505050565b5f6108b26106d5565b82106108f7575f826040517fa57d13dc0000000000000000000000000000000000000000000000000000000081526004016108ee929190612abb565b60405180910390fd5b6008828154811061090b5761090a612ae2565b5b905f5260205f2001549050919050565b5f610925826110d0565b9050919050565b5f8073ffffffffffffffffffffffffffffffffffffffff168273ffffffffffffffffffffffffffffffffffffffff160361099d575f6040517f89c62b640000000000000000000000000000000000000000000000000000000081526004016109949190612327565b60405180910390fd5b60035f8373ffffffffffffffffffffffffffffffffffffffff1673ffffffffffffffffffffffffffffffffffffffff1681526020019081526020015f20549050919050565b3373ffffffffffffffffffffffffffffffffffffffff16610a028261091b565b73ffffffffffffffffffffffffffffffffffffffff1603610a58576040517f08c379a0000000000000000000000000000000000000000000000000000000008152600401610a4f90612b7f565b60405180910390fd5b5f600a5f8381526020019081526020015f209050805f01543414610ab1576040517f08c379a0000000000000000000000000000000000000000000000000000000008152600401610aa890612be7565b60405180910390fd5b5f610abb8361091b565b9050610ac88133856112c2565b8073ffffffffffffffffffffffffffffffffffffffff166108fc3490811502906040515f60405180830381858888f19350505050158015610b0b573d5f803e3d5ffd5b506001826001015f6101000a81548160ff0219169083151502179055507f1c2a4a0d44aa46b97f45535571a8afda35b55bc1b5179b4ccf716532af8cfd0b60405160405180910390a1505050565b600a602052805f5260405f205f91509050805f015490806001015f9054906101000a900460ff1690806002015490806003015490806004015490806005015490806006015490806007015490806008015490806009015490508a565b8051825114610bf9576040517f08c379a0000000000000000000000000000000000000000000000000000000008152600401610bf090612c75565b60405180910390fd5b5f5b8251811015610ce6573373ffffffffffffffffffffffffffffffffffffffff16610c3e838381518110610c3157610c30612ae2565b5b602002602001015161091b565b73ffffffffffffffffffffffffffffffffffffffff1614610c94576040517f08c379a0000000000000000000000000000000000000000000000000000000008152600401610c8b90612cdd565b60405180910390fd5b610cd333848381518110610cab57610caa612ae2565b5b6020026020010151848481518110610cc657610cc5612ae2565b5b602002602001015161088a565b8080610cde90612d28565b915050610bfb565b505050565b606060018054610cfa90612a56565b80601f0160208091040260200160405190810160405280929190818152602001828054610d2690612a56565b8015610d715780601f10610d4857610100808354040283529160200191610d71565b820191905f5260205f20905b815481529060010190602001808311610d5457829003601f168201915b5050505050905090565b610d8d610d8661118f565b838361142a565b5050565b610d9c8484846106e1565b610da884848484611593565b50505050565b6060600b5f8381526020019081526020015f208054610dcc90612a56565b80601f0160208091040260200160405190810160405280929190818152602001828054610df890612a56565b8015610e435780601f10610e1a57610100808354040283529160200191610e43565b820191905f5260205f20905b815481529060010190602001808311610e2657829003601f168201915b50505050509050919050565b5f60055f8473ffffffffffffffffffffffffffffffffffffffff1673ffffffffffffffffffffffffffffffffffffffff1681526020019081526020015f205f8373ffffffffffffffffffffffffffffffffffffffff1673ffffffffffffffffffffffffffffffffffffffff1681526020019081526020015f205f9054906101000a900460ff16905092915050565b5f80600c5f815480929190610ef190612d28565b919050559050610f013382611745565b610f0b8184611838565b5f6040518061014001604052808681526020015f151581526020015f81526020015f81526020015f81526020015f81526020015f81526020015f81526020015f81526020015f815250905080600a5f8481526020019081526020015f205f820151815f01556020820151816001015f6101000a81548160ff02191690831515021790555060408201518160020155606082015181600301556080820151816004015560a0820151816005015560c0820151816006015560e0820151816007015561010082015181600801556101208201518160090155905050819250505092915050565b5f7f80ac58cd000000000000000000000000000000000000000000000000000000007bffffffffffffffffffffffffffffffffffffffffffffffffffffffff1916827bffffffffffffffffffffffffffffffffffffffffffffffffffffffff191614806110b957507f5b5e139f000000000000000000000000000000000000000000000000000000007bffffffffffffffffffffffffffffffffffffffffffffffffffffffff1916827bffffffffffffffffffffffffffffffffffffffffffffffffffffffff1916145b806110c957506110c88261185b565b5b9050919050565b5f806110db836118c4565b90505f73ffffffffffffffffffffffffffffffffffffffff168173ffffffffffffffffffffffffffffffffffffffff160361114d57826040517f7e27328900000000000000000000000000000000000000000000000000000000815260040161114491906123b7565b60405180910390fd5b80915050919050565b5f60045f8381526020019081526020015f205f9054906101000a900473ffffffffffffffffffffffffffffffffffffffff169050919050565b5f33905090565b6111a383838360016118fd565b505050565b5f806111b5858585611abc565b90505f73ffffffffffffffffffffffffffffffffffffffff168173ffffffffffffffffffffffffffffffffffffffff16036111f8576111f384611cc7565b611237565b8473ffffffffffffffffffffffffffffffffffffffff168173ffffffffffffffffffffffffffffffffffffffff1614611236576112358185611d0b565b5b5b5f73ffffffffffffffffffffffffffffffffffffffff168573ffffffffffffffffffffffffffffffffffffffff16036112785761127384611e55565b6112b7565b8473ffffffffffffffffffffffffffffffffffffffff168173ffffffffffffffffffffffffffffffffffffffff16146112b6576112b58585611f15565b5b5b809150509392505050565b5f73ffffffffffffffffffffffffffffffffffffffff168273ffffffffffffffffffffffffffffffffffffffff1603611332575f6040517f64a0ae920000000000000000000000000000000000000000000000000000000081526004016113299190612327565b60405180910390fd5b5f61133e83835f6111a8565b90505f73ffffffffffffffffffffffffffffffffffffffff168173ffffffffffffffffffffffffffffffffffffffff16036113b057816040517f7e2732890000000000000000000000000000000000000000000000000000000081526004016113a791906123b7565b60405180910390fd5b8373ffffffffffffffffffffffffffffffffffffffff168173ffffffffffffffffffffffffffffffffffffffff1614611424578382826040517f64283d7b00000000000000000000000000000000000000000000000000000000815260040161141b93929190612a86565b60405180910390fd5b50505050565b5f73ffffffffffffffffffffffffffffffffffffffff168273ffffffffffffffffffffffffffffffffffffffff160361149a57816040517f5b08ba180000000000000000000000000000000000000000000000000000000081526004016114919190612327565b60405180910390fd5b8060055f8573ffffffffffffffffffffffffffffffffffffffff1673ffffffffffffffffffffffffffffffffffffffff1681526020019081526020015f205f8473ffffffffffffffffffffffffffffffffffffffff1673ffffffffffffffffffffffffffffffffffffffff1681526020019081526020015f205f6101000a81548160ff0219169083151502179055508173ffffffffffffffffffffffffffffffffffffffff168373ffffffffffffffffffffffffffffffffffffffff167f17307eab39ab6107e8899845ad3d59bd9653f200f220920489ca2b5937696c318360405161158691906121c7565b60405180910390a3505050565b5f8373ffffffffffffffffffffffffffffffffffffffff163b111561173f578273ffffffffffffffffffffffffffffffffffffffff1663150b7a026115d661118f565b8685856040518563ffffffff1660e01b81526004016115f89493929190612dc1565b6020604051808303815f875af192505050801561163357506040513d601f19601f820116820180604052508101906116309190612e1f565b60015b6116b4573d805f8114611661576040519150601f19603f3d011682016040523d82523d5f602084013e611666565b606091505b505f8151036116ac57836040517f64a0ae920000000000000000000000000000000000000000000000000000000081526004016116a39190612327565b60405180910390fd5b805181602001fd5b63150b7a0260e01b7bffffffffffffffffffffffffffffffffffffffffffffffffffffffff1916817bffffffffffffffffffffffffffffffffffffffffffffffffffffffff19161461173d57836040517f64a0ae920000000000000000000000000000000000000000000000000000000081526004016117349190612327565b60405180910390fd5b505b50505050565b5f73ffffffffffffffffffffffffffffffffffffffff168273ffffffffffffffffffffffffffffffffffffffff16036117b5575f6040517f64a0ae920000000000000000000000000000000000000000000000000000000081526004016117ac9190612327565b60405180910390fd5b5f6117c183835f6111a8565b90505f73ffffffffffffffffffffffffffffffffffffffff168173ffffffffffffffffffffffffffffffffffffffff1614611833575f6040517f73c6ac6e00000000000000000000000000000000000000000000000000000000815260040161182a9190612327565b60405180910390fd5b505050565b80600b5f8481526020019081526020015f2090816118569190612fe7565b505050565b5f7f01ffc9a7000000000000000000000000000000000000000000000000000000007bffffffffffffffffffffffffffffffffffffffffffffffffffffffff1916827bffffffffffffffffffffffffffffffffffffffffffffffffffffffff1916149050919050565b5f60025f8381526020019081526020015f205f9054906101000a900473ffffffffffffffffffffffffffffffffffffffff169050919050565b808061193557505f73ffffffffffffffffffffffffffffffffffffffff168273ffffffffffffffffffffffffffffffffffffffff1614155b15611a67575f611944846110d0565b90505f73ffffffffffffffffffffffffffffffffffffffff168373ffffffffffffffffffffffffffffffffffffffff16141580156119ae57508273ffffffffffffffffffffffffffffffffffffffff168173ffffffffffffffffffffffffffffffffffffffff1614155b80156119c157506119bf8184610e4f565b155b15611a0357826040517fa9fbf51f0000000000000000000000000000000000000000000000000000000081526004016119fa9190612327565b60405180910390fd5b8115611a6557838573ffffffffffffffffffffffffffffffffffffffff168273ffffffffffffffffffffffffffffffffffffffff167f8c5be1e5ebec7d5bd14f71427d1e84f3dd0314c0f7b2291e5b200ac8c7c3b92560405160405180910390a45b505b8360045f8581526020019081526020015f205f6101000a81548173ffffffffffffffffffffffffffffffffffffffff021916908373ffffffffffffffffffffffffffffffffffffffff16021790555050505050565b5f80611ac7846118c4565b90505f73ffffffffffffffffffffffffffffffffffffffff168373ffffffffffffffffffffffffffffffffffffffff1614611b0857611b07818486611f99565b5b5f73ffffffffffffffffffffffffffffffffffffffff168173ffffffffffffffffffffffffffffffffffffffff1614611b9357611b475f855f806118fd565b600160035f8373ffffffffffffffffffffffffffffffffffffffff1673ffffffffffffffffffffffffffffffffffffffff1681526020019081526020015f205f82825403925050819055505b5f73ffffffffffffffffffffffffffffffffffffffff168573ffffffffffffffffffffffffffffffffffffffff1614611c1257600160035f8773ffffffffffffffffffffffffffffffffffffffff1673ffffffffffffffffffffffffffffffffffffffff1681526020019081526020015f205f82825401925050819055505b8460025f8681526020019081526020015f205f6101000a81548173ffffffffffffffffffffffffffffffffffffffff021916908373ffffffffffffffffffffffffffffffffffffffff160217905550838573ffffffffffffffffffffffffffffffffffffffff168273ffffffffffffffffffffffffffffffffffffffff167fddf252ad1be2c89b69c2b068fc378daa952ba7f163c4a11628f55a4df523b3ef60405160405180910390a4809150509392505050565b60088054905060095f8381526020019081526020015f2081905550600881908060018154018082558091505060019003905f5260205f20015f909190919091505550565b5f611d158361092c565b90505f60075f8481526020019081526020015f20549050818114611dec575f60065f8673ffffffffffffffffffffffffffffffffffffffff1673ffffffffffffffffffffffffffffffffffffffff1681526020019081526020015f205f8481526020019081526020015f205490508060065f8773ffffffffffffffffffffffffffffffffffffffff1673ffffffffffffffffffffffffffffffffffffffff1681526020019081526020015f205f8481526020019081526020015f20819055508160075f8381526020019081526020015f2081905550505b60075f8481526020019081526020015f205f905560065f8573ffffffffffffffffffffffffffffffffffffffff1673ffffffffffffffffffffffffffffffffffffffff1681526020019081526020015f205f8381526020019081526020015f205f905550505050565b5f6001600880549050611e6891906130b6565b90505f60095f8481526020019081526020015f205490505f60088381548110611e9457611e93612ae2565b5b905f5260205f20015490508060088381548110611eb457611eb3612ae2565b5b905f5260205f2001819055508160095f8381526020019081526020015f208190555060095f8581526020019081526020015f205f90556008805480611efc57611efb6130e9565b5b600190038181905f5260205f20015f9055905550505050565b5f6001611f218461092c565b611f2b91906130b6565b90508160065f8573ffffffffffffffffffffffffffffffffffffffff1673ffffffffffffffffffffffffffffffffffffffff1681526020019081526020015f205f8381526020019081526020015f20819055508060075f8481526020019081526020015f2081905550505050565b611fa483838361205c565b612057575f73ffffffffffffffffffffffffffffffffffffffff168373ffffffffffffffffffffffffffffffffffffffff160361201857806040517f7e27328900000000000000000000000000000000000000000000000000000000815260040161200f91906123b7565b60405180910390fd5b81816040517f177e802f00000000000000000000000000000000000000000000000000000000815260040161204e929190612abb565b60405180910390fd5b505050565b5f8073ffffffffffffffffffffffffffffffffffffffff168373ffffffffffffffffffffffffffffffffffffffff161415801561211357508273ffffffffffffffffffffffffffffffffffffffff168473ffffffffffffffffffffffffffffffffffffffff1614806120d457506120d38484610e4f565b5b8061211257508273ffffffffffffffffffffffffffffffffffffffff166120fa83611156565b73ffffffffffffffffffffffffffffffffffffffff16145b5b90509392505050565b5f604051905090565b5f80fd5b5f80fd5b5f7fffffffff0000000000000000000000000000000000000000000000000000000082169050919050565b6121618161212d565b811461216b575f80fd5b50565b5f8135905061217c81612158565b92915050565b5f6020828403121561219757612196612125565b5b5f6121a48482850161216e565b91505092915050565b5f8115159050919050565b6121c1816121ad565b82525050565b5f6020820190506121da5f8301846121b8565b92915050565b5f81519050919050565b5f82825260208201905092915050565b5f5b838110156122175780820151818401526020810190506121fc565b5f8484015250505050565b5f601f19601f8301169050919050565b5f61223c826121e0565b61224681856121ea565b93506122568185602086016121fa565b61225f81612222565b840191505092915050565b5f6020820190508181035f8301526122828184612232565b905092915050565b5f819050919050565b61229c8161228a565b81146122a6575f80fd5b50565b5f813590506122b781612293565b92915050565b5f602082840312156122d2576122d1612125565b5b5f6122df848285016122a9565b91505092915050565b5f73ffffffffffffffffffffffffffffffffffffffff82169050919050565b5f612311826122e8565b9050919050565b61232181612307565b82525050565b5f60208201905061233a5f830184612318565b92915050565b61234981612307565b8114612353575f80fd5b50565b5f8135905061236481612340565b92915050565b5f80604083850312156123805761237f612125565b5b5f61238d85828601612356565b925050602061239e858286016122a9565b9150509250929050565b6123b18161228a565b82525050565b5f6020820190506123ca5f8301846123a8565b92915050565b5f805f606084860312156123e7576123e6612125565b5b5f6123f486828701612356565b935050602061240586828701612356565b9250506040612416868287016122a9565b9150509250925092565b5f6020828403121561243557612434612125565b5b5f61244284828501612356565b91505092915050565b5f6101408201905061245f5f83018d6123a8565b61246c602083018c6121b8565b612479604083018b6123a8565b612486606083018a6123a8565b61249360808301896123a8565b6124a060a08301886123a8565b6124ad60c08301876123a8565b6124ba60e08301866123a8565b6124c86101008301856123a8565b6124d66101208301846123a8565b9b9a5050505050505050505050565b5f80fd5b7f4e487b71000000000000000000000000000000000000000000000000000000005f52604160045260245ffd5b61251f82612222565b810181811067ffffffffffffffff8211171561253e5761253d6124e9565b5b80604052505050565b5f61255061211c565b905061255c8282612516565b919050565b5f67ffffffffffffffff82111561257b5761257a6124e9565b5b602082029050602081019050919050565b5f80fd5b5f6125a261259d84612561565b612547565b905080838252602082019050602084028301858111156125c5576125c461258c565b5b835b818110156125ee57806125da8882612356565b8452602084019350506020810190506125c7565b5050509392505050565b5f82601f83011261260c5761260b6124e5565b5b813561261c848260208601612590565b91505092915050565b5f67ffffffffffffffff82111561263f5761263e6124e9565b5b602082029050602081019050919050565b5f61266261265d84612625565b612547565b905080838252602082019050602084028301858111156126855761268461258c565b5b835b818110156126ae578061269a88826122a9565b845260208401935050602081019050612687565b5050509392505050565b5f82601f8301126126cc576126cb6124e5565b5b81356126dc848260208601612650565b91505092915050565b5f80604083850312156126fb576126fa612125565b5b5f83013567ffffffffffffffff81111561271857612717612129565b5b612724858286016125f8565b925050602083013567ffffffffffffffff81111561274557612744612129565b5b612751858286016126b8565b9150509250929050565b612764816121ad565b811461276e575f80fd5b50565b5f8135905061277f8161275b565b92915050565b5f806040838503121561279b5761279a612125565b5b5f6127a885828601612356565b92505060206127b985828601612771565b9150509250929050565b5f80fd5b5f67ffffffffffffffff8211156127e1576127e06124e9565b5b6127ea82612222565b9050602081019050919050565b828183375f83830152505050565b5f612817612812846127c7565b612547565b905082815260208101848484011115612833576128326127c3565b5b61283e8482856127f7565b509392505050565b5f82601f83011261285a576128596124e5565b5b813561286a848260208601612805565b91505092915050565b5f805f806080858703121561288b5761288a612125565b5b5f61289887828801612356565b94505060206128a987828801612356565b93505060406128ba878288016122a9565b925050606085013567ffffffffffffffff8111156128db576128da612129565b5b6128e787828801612846565b91505092959194509250565b5f806040838503121561290957612908612125565b5b5f61291685828601612356565b925050602061292785828601612356565b9150509250929050565b5f67ffffffffffffffff82111561294b5761294a6124e9565b5b61295482612222565b9050602081019050919050565b5f61297361296e84612931565b612547565b90508281526020810184848401111561298f5761298e6127c3565b5b61299a8482856127f7565b509392505050565b5f82601f8301126129b6576129b56124e5565b5b81356129c6848260208601612961565b91505092915050565b5f80604083850312156129e5576129e4612125565b5b5f6129f2858286016122a9565b925050602083013567ffffffffffffffff811115612a1357612a12612129565b5b612a1f858286016129a2565b9150509250929050565b7f4e487b71000000000000000000000000000000000000000000000000000000005f52602260045260245ffd5b5f6002820490506001821680612a6d57607f821691505b602082108103612a8057612a7f612a29565b5b50919050565b5f606082019050612a995f830186612318565b612aa660208301856123a8565b612ab36040830184612318565b949350505050565b5f604082019050612ace5f830185612318565b612adb60208301846123a8565b9392505050565b7f4e487b71000000000000000000000000000000000000000000000000000000005f52603260045260245ffd5b7f4552433732313a207472616e736665722063616c6c657220697320616c7265615f8201527f6479206f776e6572000000000000000000000000000000000000000000000000602082015250565b5f612b696028836121ea565b9150612b7482612b0f565b604082019050919050565b5f6020820190508181035f830152612b9681612b5d565b9050919050565b7f496e636f72726563742045746865722073656e742e00000000000000000000005f82015250565b5f612bd16015836121ea565b9150612bdc82612b9d565b602082019050919050565b5f6020820190508181035f830152612bfe81612bc5565b9050919050565b7f546f20616e642050726f7065727479496473206c656e677468206d69736d61745f8201527f6368000000000000000000000000000000000000000000000000000000000000602082015250565b5f612c5f6022836121ea565b9150612c6a82612c05565b604082019050919050565b5f6020820190508181035f830152612c8c81612c53565b9050919050565b7f43616c6c6572206973206e6f74206f776e6572206f662074686520746f6b656e5f82015250565b5f612cc76020836121ea565b9150612cd282612c93565b602082019050919050565b5f6020820190508181035f830152612cf481612cbb565b9050919050565b7f4e487b71000000000000000000000000000000000000000000000000000000005f52601160045260245ffd5b5f612d328261228a565b91507fffffffffffffffffffffffffffffffffffffffffffffffffffffffffffffffff8203612d6457612d63612cfb565b5b600182019050919050565b5f81519050919050565b5f82825260208201905092915050565b5f612d9382612d6f565b612d9d8185612d79565b9350612dad8185602086016121fa565b612db681612222565b840191505092915050565b5f608082019050612dd45f830187612318565b612de16020830186612318565b612dee60408301856123a8565b8181036060830152612e008184612d89565b905095945050505050565b5f81519050612e1981612158565b92915050565b5f60208284031215612e3457612e33612125565b5b5f612e4184828501612e0b565b91505092915050565b5f819050815f5260205f209050919050565b5f6020601f8301049050919050565b5f82821b905092915050565b5f60088302612ea67fffffffffffffffffffffffffffffffffffffffffffffffffffffffffffffffff82612e6b565b612eb08683612e6b565b95508019841693508086168417925050509392505050565b5f819050919050565b5f612eeb612ee6612ee18461228a565b612ec8565b61228a565b9050919050565b5f819050919050565b612f0483612ed1565b612f18612f1082612ef2565b848454612e77565b825550505050565b5f90565b612f2c612f20565b612f37818484612efb565b505050565b5b81811015612f5a57612f4f5f82612f24565b600181019050612f3d565b5050565b601f821115612f9f57612f7081612e4a565b612f7984612e5c565b81016020851015612f88578190505b612f9c612f9485612e5c565b830182612f3c565b50505b505050565b5f82821c905092915050565b5f612fbf5f1984600802612fa4565b1980831691505092915050565b5f612fd78383612fb0565b9150826002028217905092915050565b612ff0826121e0565b67ffffffffffffffff811115613009576130086124e9565b5b6130138254612a56565b61301e828285612f5e565b5f60209050601f83116001811461304f575f841561303d578287015190505b6130478582612fcc565b8655506130ae565b601f19841661305d86612e4a565b5f5b828110156130845784890151825560018201915060208501945060208101905061305f565b868310156130a1578489015161309d601f891682612fb0565b8355505b6001600288020188555050505b505050505050565b5f6130c08261228a565b91506130cb8361228a565b92508282039050818111156130e3576130e2612cfb565b5b92915050565b7f4e487b71000000000000000000000000000000000000000000000000000000005f52603160045260245ffdfea2646970667358221220da1a3ad4cedc818d8107a3451ae07f23b18ae8df45d3ca888113127db59e095864736f6c63430008150033",
  "immutableReferences": {},
  "source": "// SPDX-License-Identifier: UNLICENSED\r\npragma solidity ^0.8.9;\r\n\r\nimport \"@openzeppelin/contracts/token/ERC721/extensions/ERC721Enumerable.sol\";\r\n\r\ncontract RealEstate is ERC721Enumerable {\r\n    struct Economics {\r\n        uint256 housePrice;\r\n        bool purchased;\r\n        uint256 userBalance;\r\n        uint256 sellerBalance;\r\n        uint256 ethereumPayment;\r\n        uint256 sellerID;\r\n        uint256 purchaserID;\r\n        uint256 purchaserHouseValue;\r\n        uint256 sellerhouserights;\r\n        uint256 purchaserhouserights;\r\n    }\r\n\r\n    event Purchased();\r\n    event Initialized();\r\n    event Finalized();\r\n    event TransferTransaction(); \r\n\r\n    mapping(uint256 => Economics) public propertyDetails; \r\n    mapping(uint256 => string) private _tokenURIs;\r\n\r\n    uint256 public nextPropertyId = 1;\r\n    address public seller;\r\n\r\n    modifier onlyOwner(uint256 _propertyId) {\r\n        require(ownerOf(_propertyId) == msg.sender, \"Not the owner\");\r\n        _;\r\n    }\r\n\r\n    constructor() ERC721(\"RealEstate\", \"RE\") {\r\n        seller = msg.sender;\r\n    }\r\n\r\n    function addProperty(uint256 _housePrice, string memory _tokenURI) external returns (uint256) {\r\n        uint256 newPropertyId = nextPropertyId++;\r\n        _mint(msg.sender, newPropertyId);\r\n        _setTokenURI(newPropertyId, _tokenURI);\r\n\r\n        Economics memory economics = Economics({\r\n            housePrice: _housePrice,\r\n            purchased: false,\r\n            userBalance: 0,\r\n            sellerBalance: 0,\r\n            ethereumPayment: 0,\r\n            sellerID: 0,\r\n            purchaserID: 0,\r\n            purchaserHouseValue: 0,\r\n            sellerhouserights: 0,\r\n            purchaserhouserights: 0\r\n        });\r\n\r\n        propertyDetails[newPropertyId] = economics;\r\n        return newPropertyId;\r\n    }\r\n\r\n    function purchaseProperty(uint256 _propertyId) external payable {\r\n        require(ownerOf(_propertyId) != msg.sender, \"ERC721: transfer caller is already owner\");\r\n        Economics storage property = propertyDetails[_propertyId];\r\n        require(msg.value == property.housePrice, \"Incorrect Ether sent.\");\r\n\r\n        address previousOwner = ownerOf(_propertyId);\r\n        _transfer(previousOwner, msg.sender, _propertyId);\r\n        payable(previousOwner).transfer(msg.value);\r\n\r\n        property.purchased = true;\r\n        emit Purchased();\r\n    }\r\n\r\n    function _setTokenURI(uint256 tokenId, string memory _tokenURI) internal virtual {\r\n        _tokenURIs[tokenId] = _tokenURI;\r\n    }\r\n\r\n    function tokenURI(uint256 tokenId) public view virtual override returns (string memory) {\r\n        // require(_exists(tokenId), \"ERC721Metadata: URI query for nonexistent token\");\r\n        return _tokenURIs[tokenId];\r\n    }\r\n\r\n    function batchTransfer(address[] memory _to, uint256[] memory _propertyIds) external {\r\n        require(_to.length == _propertyIds.length, \"To and PropertyIds length mismatch\");\r\n\r\n        for (uint256 i = 0; i < _to.length; i++) {\r\n            require(ownerOf(_propertyIds[i]) == msg.sender, \"Caller is not owner of the token\");\r\n            safeTransferFrom(msg.sender, _to[i], _propertyIds[i]);\r\n        }\r\n    }\r\n\r\n    // Additional functions and logic\r\n}\r\n",
  "sourcePath": "C:\\Users\\user\\Documents\\CodingFiles_ubuffalo\\cse426blockchain\\ProjPhase2\\RealEstateProject\\contracts\\ERC1155.sol",
  "compiler": {
    "name": "solc",
    "version": "0.8.21+commit.d9974bed.Emscripten.clang"
  },
  "schemaVersion": "3.4.16",
  "updatedAt": "2023-11-15T04:44:36.627Z",
  "devdoc": {
    "errors": {
      "ERC721EnumerableForbiddenBatchMint()": [
        {
          "details": "Batch mint is not allowed."
        }
      ],
      "ERC721IncorrectOwner(address,uint256,address)": [
        {
          "details": "Indicates an error related to the ownership over a particular token. Used in transfers.",
          "params": {
            "owner": "Address of the current owner of a token.",
            "sender": "Address whose tokens are being transferred.",
            "tokenId": "Identifier number of a token."
          }
        }
      ],
      "ERC721InsufficientApproval(address,uint256)": [
        {
          "details": "Indicates a failure with the `operator`s approval. Used in transfers.",
          "params": {
            "operator": "Address that may be allowed to operate on tokens without being their owner.",
            "tokenId": "Identifier number of a token."
          }
        }
      ],
      "ERC721InvalidApprover(address)": [
        {
          "details": "Indicates a failure with the `approver` of a token to be approved. Used in approvals.",
          "params": {
            "approver": "Address initiating an approval operation."
          }
        }
      ],
      "ERC721InvalidOperator(address)": [
        {
          "details": "Indicates a failure with the `operator` to be approved. Used in approvals.",
          "params": {
            "operator": "Address that may be allowed to operate on tokens without being their owner."
          }
        }
      ],
      "ERC721InvalidOwner(address)": [
        {
          "details": "Indicates that an address can't be an owner. For example, `address(0)` is a forbidden owner in EIP-20. Used in balance queries.",
          "params": {
            "owner": "Address of the current owner of a token."
          }
        }
      ],
      "ERC721InvalidReceiver(address)": [
        {
          "details": "Indicates a failure with the token `receiver`. Used in transfers.",
          "params": {
            "receiver": "Address to which tokens are being transferred."
          }
        }
      ],
      "ERC721InvalidSender(address)": [
        {
          "details": "Indicates a failure with the token `sender`. Used in transfers.",
          "params": {
            "sender": "Address whose tokens are being transferred."
          }
        }
      ],
      "ERC721NonexistentToken(uint256)": [
        {
          "details": "Indicates a `tokenId` whose `owner` is the zero address.",
          "params": {
            "tokenId": "Identifier number of a token."
          }
        }
      ],
      "ERC721OutOfBoundsIndex(address,uint256)": [
        {
          "details": "An `owner`'s token query was out of bounds for `index`. NOTE: The owner being `address(0)` indicates a global out of bounds index."
        }
      ]
    },
    "events": {
      "Approval(address,address,uint256)": {
        "details": "Emitted when `owner` enables `approved` to manage the `tokenId` token."
      },
      "ApprovalForAll(address,address,bool)": {
        "details": "Emitted when `owner` enables or disables (`approved`) `operator` to manage all of its assets."
      },
      "Transfer(address,address,uint256)": {
        "details": "Emitted when `tokenId` token is transferred from `from` to `to`."
      }
    },
    "kind": "dev",
    "methods": {
      "approve(address,uint256)": {
        "details": "See {IERC721-approve}."
      },
      "balanceOf(address)": {
        "details": "See {IERC721-balanceOf}."
      },
      "getApproved(uint256)": {
        "details": "See {IERC721-getApproved}."
      },
      "isApprovedForAll(address,address)": {
        "details": "See {IERC721-isApprovedForAll}."
      },
      "name()": {
        "details": "See {IERC721Metadata-name}."
      },
      "ownerOf(uint256)": {
        "details": "See {IERC721-ownerOf}."
      },
      "safeTransferFrom(address,address,uint256)": {
        "details": "See {IERC721-safeTransferFrom}."
      },
      "safeTransferFrom(address,address,uint256,bytes)": {
        "details": "See {IERC721-safeTransferFrom}."
      },
      "setApprovalForAll(address,bool)": {
        "details": "See {IERC721-setApprovalForAll}."
      },
      "supportsInterface(bytes4)": {
        "details": "See {IERC165-supportsInterface}."
      },
      "symbol()": {
        "details": "See {IERC721Metadata-symbol}."
      },
      "tokenByIndex(uint256)": {
        "details": "See {IERC721Enumerable-tokenByIndex}."
      },
      "tokenOfOwnerByIndex(address,uint256)": {
        "details": "See {IERC721Enumerable-tokenOfOwnerByIndex}."
      },
      "tokenURI(uint256)": {
        "details": "See {IERC721Metadata-tokenURI}."
      },
      "totalSupply()": {
        "details": "See {IERC721Enumerable-totalSupply}."
      },
      "transferFrom(address,address,uint256)": {
        "details": "See {IERC721-transferFrom}."
      }
    },
    "version": 1
  },
  "userdoc": {
    "kind": "user",
    "methods": {},
    "version": 1
  }
}